{
  "_format": "hh-sol-artifact-1",
  "contractName": "SafeAirdrop",
  "sourceName": "contracts/examples/SafeAirdrop.sol",
  "abi": [
    {
      "inputs": [],
      "stateMutability": "nonpayable",
      "type": "constructor"
    },
    {
      "anonymous": false,
      "inputs": [
        {
          "indexed": true,
          "internalType": "address",
          "name": "owner",
          "type": "address"
        },
        {
          "indexed": true,
          "internalType": "address",
          "name": "spender",
          "type": "address"
        },
        {
          "indexed": false,
          "internalType": "uint256",
          "name": "value",
          "type": "uint256"
        }
      ],
      "name": "Approval",
      "type": "event"
    },
    {
      "anonymous": false,
      "inputs": [
        {
          "indexed": true,
          "internalType": "address",
          "name": "from",
          "type": "address"
        },
        {
          "indexed": true,
          "internalType": "address",
          "name": "to",
          "type": "address"
        },
        {
          "indexed": false,
          "internalType": "uint256",
          "name": "value",
          "type": "uint256"
        }
      ],
      "name": "Transfer",
      "type": "event"
    },
    {
      "inputs": [],
      "name": "airdrop",
      "outputs": [],
      "stateMutability": "nonpayable",
      "type": "function"
    },
    {
      "inputs": [
        {
          "internalType": "address",
          "name": "owner",
          "type": "address"
        },
        {
          "internalType": "address",
          "name": "spender",
          "type": "address"
        }
      ],
      "name": "allowance",
      "outputs": [
        {
          "internalType": "uint256",
          "name": "",
          "type": "uint256"
        }
      ],
      "stateMutability": "view",
      "type": "function"
    },
    {
      "inputs": [
        {
          "internalType": "address",
          "name": "spender",
          "type": "address"
        },
        {
          "internalType": "uint256",
          "name": "amount",
          "type": "uint256"
        }
      ],
      "name": "approve",
      "outputs": [
        {
          "internalType": "bool",
          "name": "",
          "type": "bool"
        }
      ],
      "stateMutability": "nonpayable",
      "type": "function"
    },
    {
      "inputs": [
        {
          "internalType": "address",
          "name": "account",
          "type": "address"
        }
      ],
      "name": "balanceOf",
      "outputs": [
        {
          "internalType": "uint256",
          "name": "",
          "type": "uint256"
        }
      ],
      "stateMutability": "view",
      "type": "function"
    },
    {
      "inputs": [
        {
          "internalType": "address",
          "name": "",
          "type": "address"
        }
      ],
      "name": "claimed",
      "outputs": [
        {
          "internalType": "bool",
          "name": "",
          "type": "bool"
        }
      ],
      "stateMutability": "view",
      "type": "function"
    },
    {
      "inputs": [],
      "name": "decimals",
      "outputs": [
        {
          "internalType": "uint8",
          "name": "",
          "type": "uint8"
        }
      ],
      "stateMutability": "view",
      "type": "function"
    },
    {
      "inputs": [
        {
          "internalType": "address",
          "name": "spender",
          "type": "address"
        },
        {
          "internalType": "uint256",
          "name": "subtractedValue",
          "type": "uint256"
        }
      ],
      "name": "decreaseAllowance",
      "outputs": [
        {
          "internalType": "bool",
          "name": "",
          "type": "bool"
        }
      ],
      "stateMutability": "nonpayable",
      "type": "function"
    },
    {
      "inputs": [
        {
          "internalType": "address",
          "name": "spender",
          "type": "address"
        },
        {
          "internalType": "uint256",
          "name": "addedValue",
          "type": "uint256"
        }
      ],
      "name": "increaseAllowance",
      "outputs": [
        {
          "internalType": "bool",
          "name": "",
          "type": "bool"
        }
      ],
      "stateMutability": "nonpayable",
      "type": "function"
    },
    {
      "inputs": [],
      "name": "name",
      "outputs": [
        {
          "internalType": "string",
          "name": "",
          "type": "string"
        }
      ],
      "stateMutability": "view",
      "type": "function"
    },
    {
      "inputs": [],
      "name": "symbol",
      "outputs": [
        {
          "internalType": "string",
          "name": "",
          "type": "string"
        }
      ],
      "stateMutability": "view",
      "type": "function"
    },
    {
      "inputs": [],
      "name": "totalSupply",
      "outputs": [
        {
          "internalType": "uint256",
          "name": "",
          "type": "uint256"
        }
      ],
      "stateMutability": "view",
      "type": "function"
    },
    {
      "inputs": [
        {
          "internalType": "address",
          "name": "to",
          "type": "address"
        },
        {
          "internalType": "uint256",
          "name": "amount",
          "type": "uint256"
        }
      ],
      "name": "transfer",
      "outputs": [
        {
          "internalType": "bool",
          "name": "",
          "type": "bool"
        }
      ],
      "stateMutability": "nonpayable",
      "type": "function"
    },
    {
      "inputs": [
        {
          "internalType": "address",
          "name": "from",
          "type": "address"
        },
        {
          "internalType": "address",
          "name": "to",
          "type": "address"
        },
        {
          "internalType": "uint256",
          "name": "amount",
          "type": "uint256"
        }
      ],
      "name": "transferFrom",
      "outputs": [
        {
          "internalType": "bool",
          "name": "",
          "type": "bool"
        }
      ],
      "stateMutability": "nonpayable",
      "type": "function"
    }
  ],
  "bytecode": "0x60806040523480156200001157600080fd5b506040518060400160405280601281526020017f536166652041697264726f7020546f6b656e00000000000000000000000000008152506040518060400160405280600381526020017f534154000000000000000000000000000000000000000000000000000000000081525081600390816200008f919062000324565b508060049081620000a1919062000324565b5050506200040b565b600081519050919050565b7f4e487b7100000000000000000000000000000000000000000000000000000000600052604160045260246000fd5b7f4e487b7100000000000000000000000000000000000000000000000000000000600052602260045260246000fd5b600060028204905060018216806200012c57607f821691505b602082108103620001425762000141620000e4565b5b50919050565b60008190508160005260206000209050919050565b60006020601f8301049050919050565b600082821b905092915050565b600060088302620001ac7fffffffffffffffffffffffffffffffffffffffffffffffffffffffffffffffff826200016d565b620001b886836200016d565b95508019841693508086168417925050509392505050565b6000819050919050565b6000819050919050565b600062000205620001ff620001f984620001d0565b620001da565b620001d0565b9050919050565b6000819050919050565b6200022183620001e4565b6200023962000230826200020c565b8484546200017a565b825550505050565b600090565b6200025062000241565b6200025d81848462000216565b505050565b5b8181101562000285576200027960008262000246565b60018101905062000263565b5050565b601f821115620002d4576200029e8162000148565b620002a9846200015d565b81016020851015620002b9578190505b620002d1620002c8856200015d565b83018262000262565b50505b505050565b600082821c905092915050565b6000620002f960001984600802620002d9565b1980831691505092915050565b6000620003148383620002e6565b9150826002028217905092915050565b6200032f82620000aa565b67ffffffffffffffff8111156200034b576200034a620000b5565b5b62000357825462000113565b6200036482828562000289565b600060209050601f8311600181146200039c576000841562000387578287015190505b62000393858262000306565b86555062000403565b601f198416620003ac8662000148565b60005b82811015620003d657848901518255600182019150602085019450602081019050620003af565b86831015620003f65784890151620003f2601f891682620002e6565b8355505b6001600288020188555050505b505050505050565b611995806200041b6000396000f3fe608060405234801561001057600080fd5b50600436106100cf5760003560e01c8063395093511161008c578063a457c2d711610066578063a457c2d714610216578063a9059cbb14610246578063c884ef8314610276578063dd62ed3e146102a6576100cf565b8063395093511461019857806370a08231146101c857806395d89b41146101f8576100cf565b806306fdde03146100d4578063095ea7b3146100f257806318160ddd1461012257806323b872dd14610140578063313ce567146101705780633884d6351461018e575b600080fd5b6100dc6102d6565b6040516100e99190610ec5565b60405180910390f35b61010c60048036038101906101079190610f80565b610368565b6040516101199190610fdb565b60405180910390f35b61012a61038b565b6040516101379190611005565b60405180910390f35b61015a60048036038101906101559190611020565b610395565b6040516101679190610fdb565b60405180910390f35b6101786103c4565b604051610185919061108f565b60405180910390f35b6101966103cd565b005b6101b260048036038101906101ad9190610f80565b6105b0565b6040516101bf9190610fdb565b60405180910390f35b6101e260048036038101906101dd91906110aa565b6105e7565b6040516101ef9190611005565b60405180910390f35b61020061062f565b60405161020d9190610ec5565b60405180910390f35b610230600480360381019061022b9190610f80565b6106c1565b60405161023d9190610fdb565b60405180910390f35b610260600480360381019061025b9190610f80565b610738565b60405161026d9190610fdb565b60405180910390f35b610290600480360381019061028b91906110aa565b61075b565b60405161029d9190610fdb565b60405180910390f35b6102c060048036038101906102bb91906110d7565b61077b565b6040516102cd9190611005565b60405180910390f35b6060600380546102e590611146565b80601f016020809104026020016040519081016040528092919081815260200182805461031190611146565b801561035e5780601f106103335761010080835404028352916020019161035e565b820191906000526020600020905b81548152906001019060200180831161034157829003601f168201915b5050505050905090565b600080610373610802565b905061038081858561080a565b600191505092915050565b6000600254905090565b6000806103a0610802565b90506103ad8582856109d3565b6103b8858585610a5f565b60019150509392505050565b60006012905090565b737927bea1ea84614dceaeca1710cea8a7deaa1d2573ffffffffffffffffffffffffffffffffffffffff1663c23697a8336040518263ffffffff1660e01b815260040161041a9190611186565b602060405180830381865afa158015610437573d6000803e3d6000fd5b505050506040513d601f19601f8201168201806040525081019061045b91906111cd565b61049a576040517f08c379a00000000000000000000000000000000000000000000000000000000081526004016104919061126c565b60405180910390fd5b60001515600560003373ffffffffffffffffffffffffffffffffffffffff1673ffffffffffffffffffffffffffffffffffffffff16815260200190815260200160002060009054906101000a900460ff1615151461052d576040517f08c379a0000000000000000000000000000000000000000000000000000000008152600401610524906112d8565b60405180910390fd5b6001600560003373ffffffffffffffffffffffffffffffffffffffff1673ffffffffffffffffffffffffffffffffffffffff16815260200190815260200160002060006101000a81548160ff0219169083151502179055506105ae336105916103c4565b600a61059d919061145a565b60646105a991906114a5565b610cd5565b565b6000806105bb610802565b90506105dc8185856105cd858961077b565b6105d791906114e7565b61080a565b600191505092915050565b60008060008373ffffffffffffffffffffffffffffffffffffffff1673ffffffffffffffffffffffffffffffffffffffff168152602001908152602001600020549050919050565b60606004805461063e90611146565b80601f016020809104026020016040519081016040528092919081815260200182805461066a90611146565b80156106b75780601f1061068c576101008083540402835291602001916106b7565b820191906000526020600020905b81548152906001019060200180831161069a57829003601f168201915b5050505050905090565b6000806106cc610802565b905060006106da828661077b565b90508381101561071f576040517f08c379a00000000000000000000000000000000000000000000000000000000081526004016107169061158d565b60405180910390fd5b61072c828686840361080a565b60019250505092915050565b600080610743610802565b9050610750818585610a5f565b600191505092915050565b60056020528060005260406000206000915054906101000a900460ff1681565b6000600160008473ffffffffffffffffffffffffffffffffffffffff1673ffffffffffffffffffffffffffffffffffffffff16815260200190815260200160002060008373ffffffffffffffffffffffffffffffffffffffff1673ffffffffffffffffffffffffffffffffffffffff16815260200190815260200160002054905092915050565b600033905090565b600073ffffffffffffffffffffffffffffffffffffffff168373ffffffffffffffffffffffffffffffffffffffff1603610879576040517f08c379a00000000000000000000000000000000000000000000000000000000081526004016108709061161f565b60405180910390fd5b600073ffffffffffffffffffffffffffffffffffffffff168273ffffffffffffffffffffffffffffffffffffffff16036108e8576040517f08c379a00000000000000000000000000000000000000000000000000000000081526004016108df906116b1565b60405180910390fd5b80600160008573ffffffffffffffffffffffffffffffffffffffff1673ffffffffffffffffffffffffffffffffffffffff16815260200190815260200160002060008473ffffffffffffffffffffffffffffffffffffffff1673ffffffffffffffffffffffffffffffffffffffff168152602001908152602001600020819055508173ffffffffffffffffffffffffffffffffffffffff168373ffffffffffffffffffffffffffffffffffffffff167f8c5be1e5ebec7d5bd14f71427d1e84f3dd0314c0f7b2291e5b200ac8c7c3b925836040516109c69190611005565b60405180910390a3505050565b60006109df848461077b565b90507fffffffffffffffffffffffffffffffffffffffffffffffffffffffffffffffff8114610a595781811015610a4b576040517f08c379a0000000000000000000000000000000000000000000000000000000008152600401610a429061171d565b60405180910390fd5b610a58848484840361080a565b5b50505050565b600073ffffffffffffffffffffffffffffffffffffffff168373ffffffffffffffffffffffffffffffffffffffff1603610ace576040517f08c379a0000000000000000000000000000000000000000000000000000000008152600401610ac5906117af565b60405180910390fd5b600073ffffffffffffffffffffffffffffffffffffffff168273ffffffffffffffffffffffffffffffffffffffff1603610b3d576040517f08c379a0000000000000000000000000000000000000000000000000000000008152600401610b3490611841565b60405180910390fd5b610b48838383610e2b565b60008060008573ffffffffffffffffffffffffffffffffffffffff1673ffffffffffffffffffffffffffffffffffffffff16815260200190815260200160002054905081811015610bce576040517f08c379a0000000000000000000000000000000000000000000000000000000008152600401610bc5906118d3565b60405180910390fd5b8181036000808673ffffffffffffffffffffffffffffffffffffffff1673ffffffffffffffffffffffffffffffffffffffff16815260200190815260200160002081905550816000808573ffffffffffffffffffffffffffffffffffffffff1673ffffffffffffffffffffffffffffffffffffffff168152602001908152602001600020600082825401925050819055508273ffffffffffffffffffffffffffffffffffffffff168473ffffffffffffffffffffffffffffffffffffffff167fddf252ad1be2c89b69c2b068fc378daa952ba7f163c4a11628f55a4df523b3ef84604051610cbc9190611005565b60405180910390a3610ccf848484610e30565b50505050565b600073ffffffffffffffffffffffffffffffffffffffff168273ffffffffffffffffffffffffffffffffffffffff1603610d44576040517f08c379a0000000000000000000000000000000000000000000000000000000008152600401610d3b9061193f565b60405180910390fd5b610d5060008383610e2b565b8060026000828254610d6291906114e7565b92505081905550806000808473ffffffffffffffffffffffffffffffffffffffff1673ffffffffffffffffffffffffffffffffffffffff168152602001908152602001600020600082825401925050819055508173ffffffffffffffffffffffffffffffffffffffff16600073ffffffffffffffffffffffffffffffffffffffff167fddf252ad1be2c89b69c2b068fc378daa952ba7f163c4a11628f55a4df523b3ef83604051610e139190611005565b60405180910390a3610e2760008383610e30565b5050565b505050565b505050565b600081519050919050565b600082825260208201905092915050565b60005b83811015610e6f578082015181840152602081019050610e54565b60008484015250505050565b6000601f19601f8301169050919050565b6000610e9782610e35565b610ea18185610e40565b9350610eb1818560208601610e51565b610eba81610e7b565b840191505092915050565b60006020820190508181036000830152610edf8184610e8c565b905092915050565b600080fd5b600073ffffffffffffffffffffffffffffffffffffffff82169050919050565b6000610f1782610eec565b9050919050565b610f2781610f0c565b8114610f3257600080fd5b50565b600081359050610f4481610f1e565b92915050565b6000819050919050565b610f5d81610f4a565b8114610f6857600080fd5b50565b600081359050610f7a81610f54565b92915050565b60008060408385031215610f9757610f96610ee7565b5b6000610fa585828601610f35565b9250506020610fb685828601610f6b565b9150509250929050565b60008115159050919050565b610fd581610fc0565b82525050565b6000602082019050610ff06000830184610fcc565b92915050565b610fff81610f4a565b82525050565b600060208201905061101a6000830184610ff6565b92915050565b60008060006060848603121561103957611038610ee7565b5b600061104786828701610f35565b935050602061105886828701610f35565b925050604061106986828701610f6b565b9150509250925092565b600060ff82169050919050565b61108981611073565b82525050565b60006020820190506110a46000830184611080565b92915050565b6000602082840312156110c0576110bf610ee7565b5b60006110ce84828501610f35565b91505092915050565b600080604083850312156110ee576110ed610ee7565b5b60006110fc85828601610f35565b925050602061110d85828601610f35565b9150509250929050565b7f4e487b7100000000000000000000000000000000000000000000000000000000600052602260045260246000fd5b6000600282049050600182168061115e57607f821691505b60208210810361117157611170611117565b5b50919050565b61118081610f0c565b82525050565b600060208201905061119b6000830184611177565b92915050565b6111aa81610fc0565b81146111b557600080fd5b50565b6000815190506111c7816111a1565b92915050565b6000602082840312156111e3576111e2610ee7565b5b60006111f1848285016111b8565b91505092915050565b7f56697369743a2068747470733a2f2f737962696c64616f2e636f6d2f2376657260008201527f6966790000000000000000000000000000000000000000000000000000000000602082015250565b6000611256602383610e40565b9150611261826111fa565b604082019050919050565b6000602082019050818103600083015261128581611249565b9050919050565b7f416c726561647920636c61696d65640000000000000000000000000000000000600082015250565b60006112c2600f83610e40565b91506112cd8261128c565b602082019050919050565b600060208201905081810360008301526112f1816112b5565b9050919050565b7f4e487b7100000000000000000000000000000000000000000000000000000000600052601160045260246000fd5b60008160011c9050919050565b6000808291508390505b600185111561137e5780860481111561135a576113596112f8565b5b60018516156113695780820291505b808102905061137785611327565b945061133e565b94509492505050565b6000826113975760019050611453565b816113a55760009050611453565b81600181146113bb57600281146113c5576113f4565b6001915050611453565b60ff8411156113d7576113d66112f8565b5b8360020a9150848211156113ee576113ed6112f8565b5b50611453565b5060208310610133831016604e8410600b84101617156114295782820a905083811115611424576114236112f8565b5b611453565b6114368484846001611334565b9250905081840481111561144d5761144c6112f8565b5b81810290505b9392505050565b600061146582610f4a565b915061147083611073565b925061149d7fffffffffffffffffffffffffffffffffffffffffffffffffffffffffffffffff8484611387565b905092915050565b60006114b082610f4a565b91506114bb83610f4a565b92508282026114c981610f4a565b915082820484148315176114e0576114df6112f8565b5b5092915050565b60006114f282610f4a565b91506114fd83610f4a565b9250828201905080821115611515576115146112f8565b5b92915050565b7f45524332303a2064656372656173656420616c6c6f77616e63652062656c6f7760008201527f207a65726f000000000000000000000000000000000000000000000000000000602082015250565b6000611577602583610e40565b91506115828261151b565b604082019050919050565b600060208201905081810360008301526115a68161156a565b9050919050565b7f45524332303a20617070726f76652066726f6d20746865207a65726f2061646460008201527f7265737300000000000000000000000000000000000000000000000000000000602082015250565b6000611609602483610e40565b9150611614826115ad565b604082019050919050565b60006020820190508181036000830152611638816115fc565b9050919050565b7f45524332303a20617070726f766520746f20746865207a65726f20616464726560008201527f7373000000000000000000000000000000000000000000000000000000000000602082015250565b600061169b602283610e40565b91506116a68261163f565b604082019050919050565b600060208201905081810360008301526116ca8161168e565b9050919050565b7f45524332303a20696e73756666696369656e7420616c6c6f77616e6365000000600082015250565b6000611707601d83610e40565b9150611712826116d1565b602082019050919050565b60006020820190508181036000830152611736816116fa565b9050919050565b7f45524332303a207472616e736665722066726f6d20746865207a65726f20616460008201527f6472657373000000000000000000000000000000000000000000000000000000602082015250565b6000611799602583610e40565b91506117a48261173d565b604082019050919050565b600060208201905081810360008301526117c88161178c565b9050919050565b7f45524332303a207472616e7366657220746f20746865207a65726f206164647260008201527f6573730000000000000000000000000000000000000000000000000000000000602082015250565b600061182b602383610e40565b9150611836826117cf565b604082019050919050565b6000602082019050818103600083015261185a8161181e565b9050919050565b7f45524332303a207472616e7366657220616d6f756e742065786365656473206260008201527f616c616e63650000000000000000000000000000000000000000000000000000602082015250565b60006118bd602683610e40565b91506118c882611861565b604082019050919050565b600060208201905081810360008301526118ec816118b0565b9050919050565b7f45524332303a206d696e7420746f20746865207a65726f206164647265737300600082015250565b6000611929601f83610e40565b9150611934826118f3565b602082019050919050565b600060208201905081810360008301526119588161191c565b905091905056fea26469706673582212207dcdacdbec92320df2ea19fcc0bff2b2453d040cd6472096dc3bf274cc7add2c64736f6c63430008110033",
  "linkReferences": {},
  "deployedLinkReferences": {}
}