{
  "_format": "hh-sol-artifact-1",
  "contractName": "SybilSimpleCheck",
  "sourceName": "contracts/examples/SimpleSybilCheck.sol",
  "abi": [
    {
      "inputs": [
        {
          "internalType": "address",
          "name": "_address",
          "type": "address"
        }
      ],
      "name": "test",
      "outputs": [
        {
          "internalType": "bool",
          "name": "",
          "type": "bool"
        }
      ],
      "stateMutability": "view",
      "type": "function"
    }
  ],
  "bytecode": "0x608060405234801561001057600080fd5b5061035a806100206000396000f3fe608060405234801561001057600080fd5b506004361061002b5760003560e01c8063bb29998e14610030575b600080fd5b61004a6004803603810190610045919061019b565b610060565b60405161005791906101e3565b60405180910390f35b6000737927bea1ea84614dceaeca1710cea8a7deaa1d2573ffffffffffffffffffffffffffffffffffffffff1663c23697a8836040518263ffffffff1660e01b81526004016100af919061020d565b602060405180830381865afa1580156100cc573d6000803e3d6000fd5b505050506040513d601f19601f820116820180604052508101906100f09190610254565b61012f576040517f08c379a000000000000000000000000000000000000000000000000000000000815260040161012690610304565b60405180910390fd5b60019050919050565b600080fd5b600073ffffffffffffffffffffffffffffffffffffffff82169050919050565b60006101688261013d565b9050919050565b6101788161015d565b811461018357600080fd5b50565b6000813590506101958161016f565b92915050565b6000602082840312156101b1576101b0610138565b5b60006101bf84828501610186565b91505092915050565b60008115159050919050565b6101dd816101c8565b82525050565b60006020820190506101f860008301846101d4565b92915050565b6102078161015d565b82525050565b600060208201905061022260008301846101fe565b92915050565b610231816101c8565b811461023c57600080fd5b50565b60008151905061024e81610228565b92915050565b60006020828403121561026a57610269610138565b5b60006102788482850161023f565b91505092915050565b600082825260208201905092915050565b7f56697369743a2068747470733a2f2f737962696c64616f2e636f6d2f2376657260008201527f6966790000000000000000000000000000000000000000000000000000000000602082015250565b60006102ee602383610281565b91506102f982610292565b604082019050919050565b6000602082019050818103600083015261031d816102e1565b905091905056fea2646970667358221220ec02e5e8cde9bfd00fde9b2bce41296e4c096e6c877a04f3ef5b52a8c789281564736f6c63430008110033",
  "linkReferences": {},
  "deployedLinkReferences": {}
}