{
  "_format": "hh-sol-artifact-1",
  "contractName": "ERC1155example",
  "sourceName": "contracts/examples/ERC1155example.sol",
  "abi": [
    {
      "inputs": [],
      "stateMutability": "nonpayable",
      "type": "constructor"
    },
    {
      "anonymous": false,
      "inputs": [
        {
          "indexed": true,
          "internalType": "address",
          "name": "account",
          "type": "address"
        },
        {
          "indexed": true,
          "internalType": "address",
          "name": "operator",
          "type": "address"
        },
        {
          "indexed": false,
          "internalType": "bool",
          "name": "approved",
          "type": "bool"
        }
      ],
      "name": "ApprovalForAll",
      "type": "event"
    },
    {
      "anonymous": false,
      "inputs": [
        {
          "indexed": true,
          "internalType": "address",
          "name": "operator",
          "type": "address"
        },
        {
          "indexed": true,
          "internalType": "address",
          "name": "from",
          "type": "address"
        },
        {
          "indexed": true,
          "internalType": "address",
          "name": "to",
          "type": "address"
        },
        {
          "indexed": false,
          "internalType": "uint256[]",
          "name": "ids",
          "type": "uint256[]"
        },
        {
          "indexed": false,
          "internalType": "uint256[]",
          "name": "values",
          "type": "uint256[]"
        }
      ],
      "name": "TransferBatch",
      "type": "event"
    },
    {
      "anonymous": false,
      "inputs": [
        {
          "indexed": true,
          "internalType": "address",
          "name": "operator",
          "type": "address"
        },
        {
          "indexed": true,
          "internalType": "address",
          "name": "from",
          "type": "address"
        },
        {
          "indexed": true,
          "internalType": "address",
          "name": "to",
          "type": "address"
        },
        {
          "indexed": false,
          "internalType": "uint256",
          "name": "id",
          "type": "uint256"
        },
        {
          "indexed": false,
          "internalType": "uint256",
          "name": "value",
          "type": "uint256"
        }
      ],
      "name": "TransferSingle",
      "type": "event"
    },
    {
      "anonymous": false,
      "inputs": [
        {
          "indexed": false,
          "internalType": "string",
          "name": "value",
          "type": "string"
        },
        {
          "indexed": true,
          "internalType": "uint256",
          "name": "id",
          "type": "uint256"
        }
      ],
      "name": "URI",
      "type": "event"
    },
    {
      "inputs": [
        {
          "internalType": "address",
          "name": "account",
          "type": "address"
        },
        {
          "internalType": "uint256",
          "name": "id",
          "type": "uint256"
        }
      ],
      "name": "balanceOf",
      "outputs": [
        {
          "internalType": "uint256",
          "name": "",
          "type": "uint256"
        }
      ],
      "stateMutability": "view",
      "type": "function"
    },
    {
      "inputs": [
        {
          "internalType": "address[]",
          "name": "accounts",
          "type": "address[]"
        },
        {
          "internalType": "uint256[]",
          "name": "ids",
          "type": "uint256[]"
        }
      ],
      "name": "balanceOfBatch",
      "outputs": [
        {
          "internalType": "uint256[]",
          "name": "",
          "type": "uint256[]"
        }
      ],
      "stateMutability": "view",
      "type": "function"
    },
    {
      "inputs": [
        {
          "internalType": "address",
          "name": "",
          "type": "address"
        }
      ],
      "name": "claimed",
      "outputs": [
        {
          "internalType": "bool",
          "name": "",
          "type": "bool"
        }
      ],
      "stateMutability": "view",
      "type": "function"
    },
    {
      "inputs": [
        {
          "internalType": "address",
          "name": "account",
          "type": "address"
        },
        {
          "internalType": "address",
          "name": "operator",
          "type": "address"
        }
      ],
      "name": "isApprovedForAll",
      "outputs": [
        {
          "internalType": "bool",
          "name": "",
          "type": "bool"
        }
      ],
      "stateMutability": "view",
      "type": "function"
    },
    {
      "inputs": [
        {
          "internalType": "address",
          "name": "account",
          "type": "address"
        },
        {
          "internalType": "uint256",
          "name": "amount",
          "type": "uint256"
        },
        {
          "internalType": "bytes",
          "name": "data",
          "type": "bytes"
        }
      ],
      "name": "mint",
      "outputs": [],
      "stateMutability": "nonpayable",
      "type": "function"
    },
    {
      "inputs": [
        {
          "internalType": "address",
          "name": "from",
          "type": "address"
        },
        {
          "internalType": "address",
          "name": "to",
          "type": "address"
        },
        {
          "internalType": "uint256[]",
          "name": "ids",
          "type": "uint256[]"
        },
        {
          "internalType": "uint256[]",
          "name": "amounts",
          "type": "uint256[]"
        },
        {
          "internalType": "bytes",
          "name": "data",
          "type": "bytes"
        }
      ],
      "name": "safeBatchTransferFrom",
      "outputs": [],
      "stateMutability": "nonpayable",
      "type": "function"
    },
    {
      "inputs": [
        {
          "internalType": "address",
          "name": "from",
          "type": "address"
        },
        {
          "internalType": "address",
          "name": "to",
          "type": "address"
        },
        {
          "internalType": "uint256",
          "name": "id",
          "type": "uint256"
        },
        {
          "internalType": "uint256",
          "name": "amount",
          "type": "uint256"
        },
        {
          "internalType": "bytes",
          "name": "data",
          "type": "bytes"
        }
      ],
      "name": "safeTransferFrom",
      "outputs": [],
      "stateMutability": "nonpayable",
      "type": "function"
    },
    {
      "inputs": [
        {
          "internalType": "address",
          "name": "operator",
          "type": "address"
        },
        {
          "internalType": "bool",
          "name": "approved",
          "type": "bool"
        }
      ],
      "name": "setApprovalForAll",
      "outputs": [],
      "stateMutability": "nonpayable",
      "type": "function"
    },
    {
      "inputs": [
        {
          "internalType": "bytes4",
          "name": "interfaceId",
          "type": "bytes4"
        }
      ],
      "name": "supportsInterface",
      "outputs": [
        {
          "internalType": "bool",
          "name": "",
          "type": "bool"
        }
      ],
      "stateMutability": "view",
      "type": "function"
    },
    {
      "inputs": [],
      "name": "tokenId",
      "outputs": [
        {
          "internalType": "uint256",
          "name": "",
          "type": "uint256"
        }
      ],
      "stateMutability": "view",
      "type": "function"
    },
    {
      "inputs": [
        {
          "internalType": "uint256",
          "name": "",
          "type": "uint256"
        }
      ],
      "name": "uri",
      "outputs": [
        {
          "internalType": "string",
          "name": "",
          "type": "string"
        }
      ],
      "stateMutability": "view",
      "type": "function"
    }
  ],
  "bytecode": "0x60806040523480156200001157600080fd5b506040518060200160405280600081525062000033816200003a60201b60201c565b50620003b0565b80600290816200004b9190620002c9565b5050565b600081519050919050565b7f4e487b7100000000000000000000000000000000000000000000000000000000600052604160045260246000fd5b7f4e487b7100000000000000000000000000000000000000000000000000000000600052602260045260246000fd5b60006002820490506001821680620000d157607f821691505b602082108103620000e757620000e662000089565b5b50919050565b60008190508160005260206000209050919050565b60006020601f8301049050919050565b600082821b905092915050565b600060088302620001517fffffffffffffffffffffffffffffffffffffffffffffffffffffffffffffffff8262000112565b6200015d868362000112565b95508019841693508086168417925050509392505050565b6000819050919050565b6000819050919050565b6000620001aa620001a46200019e8462000175565b6200017f565b62000175565b9050919050565b6000819050919050565b620001c68362000189565b620001de620001d582620001b1565b8484546200011f565b825550505050565b600090565b620001f5620001e6565b62000202818484620001bb565b505050565b5b818110156200022a576200021e600082620001eb565b60018101905062000208565b5050565b601f82111562000279576200024381620000ed565b6200024e8462000102565b810160208510156200025e578190505b620002766200026d8562000102565b83018262000207565b50505b505050565b600082821c905092915050565b60006200029e600019846008026200027e565b1980831691505092915050565b6000620002b983836200028b565b9150826002028217905092915050565b620002d4826200004f565b67ffffffffffffffff811115620002f057620002ef6200005a565b5b620002fc8254620000b8565b620003098282856200022e565b600060209050601f8311600181146200034157600084156200032c578287015190505b620003388582620002ab565b865550620003a8565b601f1984166200035186620000ed565b60005b828110156200037b5784890151825560018201915060208501945060208101905062000354565b868310156200039b578489015162000397601f8916826200028b565b8355505b6001600288020188555050505b505050505050565b612c7380620003c06000396000f3fe608060405234801561001057600080fd5b50600436106100a85760003560e01c80634e1273f4116100715780634e1273f41461017757806394d008ef146101a7578063a22cb465146101c3578063c884ef83146101df578063e985e9c51461020f578063f242432a1461023f576100a8565b8062fdd58e146100ad57806301ffc9a7146100dd5780630e89341c1461010d57806317d70f7c1461013d5780632eb2c2d61461015b575b600080fd5b6100c760048036038101906100c29190611837565b61025b565b6040516100d49190611886565b60405180910390f35b6100f760048036038101906100f291906118f9565b610323565b6040516101049190611941565b60405180910390f35b6101276004803603810190610122919061195c565b610405565b6040516101349190611a19565b60405180910390f35b610145610499565b6040516101529190611886565b60405180910390f35b61017560048036038101906101709190611c38565b61049f565b005b610191600480360381019061018c9190611dca565b610540565b60405161019e9190611f00565b60405180910390f35b6101c160048036038101906101bc9190611f22565b610659565b005b6101dd60048036038101906101d89190611fbd565b61087f565b005b6101f960048036038101906101f49190611ffd565b610895565b6040516102069190611941565b60405180910390f35b6102296004803603810190610224919061202a565b6108b5565b6040516102369190611941565b60405180910390f35b6102596004803603810190610254919061206a565b610949565b005b60008073ffffffffffffffffffffffffffffffffffffffff168373ffffffffffffffffffffffffffffffffffffffff16036102cb576040517f08c379a00000000000000000000000000000000000000000000000000000000081526004016102c290612173565b60405180910390fd5b60008083815260200190815260200160002060008473ffffffffffffffffffffffffffffffffffffffff1673ffffffffffffffffffffffffffffffffffffffff16815260200190815260200160002054905092915050565b60007fd9b67a26000000000000000000000000000000000000000000000000000000007bffffffffffffffffffffffffffffffffffffffffffffffffffffffff1916827bffffffffffffffffffffffffffffffffffffffffffffffffffffffff191614806103ee57507f0e89341c000000000000000000000000000000000000000000000000000000007bffffffffffffffffffffffffffffffffffffffffffffffffffffffff1916827bffffffffffffffffffffffffffffffffffffffffffffffffffffffff1916145b806103fe57506103fd826109ea565b5b9050919050565b606060028054610414906121c2565b80601f0160208091040260200160405190810160405280929190818152602001828054610440906121c2565b801561048d5780601f106104625761010080835404028352916020019161048d565b820191906000526020600020905b81548152906001019060200180831161047057829003601f168201915b50505050509050919050565b60035481565b6104a7610a54565b73ffffffffffffffffffffffffffffffffffffffff168573ffffffffffffffffffffffffffffffffffffffff1614806104ed57506104ec856104e7610a54565b6108b5565b5b61052c576040517f08c379a000000000000000000000000000000000000000000000000000000000815260040161052390612265565b60405180910390fd5b6105398585858585610a5c565b5050505050565b60608151835114610586576040517f08c379a000000000000000000000000000000000000000000000000000000000815260040161057d906122f7565b60405180910390fd5b6000835167ffffffffffffffff8111156105a3576105a2611a40565b5b6040519080825280602002602001820160405280156105d15781602001602082028036833780820191505090505b50905060005b845181101561064e5761061e8582815181106105f6576105f5612317565b5b602002602001015185838151811061061157610610612317565b5b602002602001015161025b565b82828151811061063157610630612317565b5b6020026020010181815250508061064790612375565b90506105d7565b508091505092915050565b737927bea1ea84614dceaeca1710cea8a7deaa1d2573ffffffffffffffffffffffffffffffffffffffff1663c23697a8336040518263ffffffff1660e01b81526004016106a691906123cc565b602060405180830381865afa1580156106c3573d6000803e3d6000fd5b505050506040513d601f19601f820116820180604052508101906106e791906123fc565b610726576040517f08c379a000000000000000000000000000000000000000000000000000000000815260040161071d9061249b565b60405180910390fd5b6103e86003541061076c576040517f08c379a000000000000000000000000000000000000000000000000000000000815260040161076390612507565b60405180910390fd5b60001515600460003373ffffffffffffffffffffffffffffffffffffffff1673ffffffffffffffffffffffffffffffffffffffff16815260200190815260200160002060009054906101000a900460ff161515146107ff576040517f08c379a00000000000000000000000000000000000000000000000000000000081526004016107f690612573565b60405180910390fd5b6001600460003373ffffffffffffffffffffffffffffffffffffffff1673ffffffffffffffffffffffffffffffffffffffff16815260200190815260200160002060006101000a81548160ff02191690831515021790555060016003546108669190612593565b60038190555061087a836003548484610d7d565b505050565b61089161088a610a54565b8383610f2d565b5050565b60046020528060005260406000206000915054906101000a900460ff1681565b6000600160008473ffffffffffffffffffffffffffffffffffffffff1673ffffffffffffffffffffffffffffffffffffffff16815260200190815260200160002060008373ffffffffffffffffffffffffffffffffffffffff1673ffffffffffffffffffffffffffffffffffffffff16815260200190815260200160002060009054906101000a900460ff16905092915050565b610951610a54565b73ffffffffffffffffffffffffffffffffffffffff168573ffffffffffffffffffffffffffffffffffffffff161480610997575061099685610991610a54565b6108b5565b5b6109d6576040517f08c379a00000000000000000000000000000000000000000000000000000000081526004016109cd90612265565b60405180910390fd5b6109e38585858585611099565b5050505050565b60007f01ffc9a7000000000000000000000000000000000000000000000000000000007bffffffffffffffffffffffffffffffffffffffffffffffffffffffff1916827bffffffffffffffffffffffffffffffffffffffffffffffffffffffff1916149050919050565b600033905090565b8151835114610aa0576040517f08c379a0000000000000000000000000000000000000000000000000000000008152600401610a9790612639565b60405180910390fd5b600073ffffffffffffffffffffffffffffffffffffffff168473ffffffffffffffffffffffffffffffffffffffff1603610b0f576040517f08c379a0000000000000000000000000000000000000000000000000000000008152600401610b06906126cb565b60405180910390fd5b6000610b19610a54565b9050610b29818787878787611334565b60005b8451811015610cda576000858281518110610b4a57610b49612317565b5b602002602001015190506000858381518110610b6957610b68612317565b5b60200260200101519050600080600084815260200190815260200160002060008b73ffffffffffffffffffffffffffffffffffffffff1673ffffffffffffffffffffffffffffffffffffffff16815260200190815260200160002054905081811015610c0a576040517f08c379a0000000000000000000000000000000000000000000000000000000008152600401610c019061275d565b60405180910390fd5b81810360008085815260200190815260200160002060008c73ffffffffffffffffffffffffffffffffffffffff1673ffffffffffffffffffffffffffffffffffffffff168152602001908152602001600020819055508160008085815260200190815260200160002060008b73ffffffffffffffffffffffffffffffffffffffff1673ffffffffffffffffffffffffffffffffffffffff1681526020019081526020016000206000828254610cbf9190612593565b9250508190555050505080610cd390612375565b9050610b2c565b508473ffffffffffffffffffffffffffffffffffffffff168673ffffffffffffffffffffffffffffffffffffffff168273ffffffffffffffffffffffffffffffffffffffff167f4a39dc06d4c0dbc64b70af90fd698a233a518aa5d07e595d983b8c0526c8f7fb8787604051610d5192919061277d565b60405180910390a4610d6781878787878761133c565b610d75818787878787611344565b505050505050565b600073ffffffffffffffffffffffffffffffffffffffff168473ffffffffffffffffffffffffffffffffffffffff1603610dec576040517f08c379a0000000000000000000000000000000000000000000000000000000008152600401610de390612826565b60405180910390fd5b6000610df6610a54565b90506000610e038561151b565b90506000610e108561151b565b9050610e2183600089858589611334565b8460008088815260200190815260200160002060008973ffffffffffffffffffffffffffffffffffffffff1673ffffffffffffffffffffffffffffffffffffffff1681526020019081526020016000206000828254610e809190612593565b925050819055508673ffffffffffffffffffffffffffffffffffffffff16600073ffffffffffffffffffffffffffffffffffffffff168473ffffffffffffffffffffffffffffffffffffffff167fc3d58168c5ae7397731d063d5bbf3d657854427343f4c083240f7aacaa2d0f628989604051610efe929190612846565b60405180910390a4610f158360008985858961133c565b610f2483600089898989611595565b50505050505050565b8173ffffffffffffffffffffffffffffffffffffffff168373ffffffffffffffffffffffffffffffffffffffff1603610f9b576040517f08c379a0000000000000000000000000000000000000000000000000000000008152600401610f92906128e1565b60405180910390fd5b80600160008573ffffffffffffffffffffffffffffffffffffffff1673ffffffffffffffffffffffffffffffffffffffff16815260200190815260200160002060008473ffffffffffffffffffffffffffffffffffffffff1673ffffffffffffffffffffffffffffffffffffffff16815260200190815260200160002060006101000a81548160ff0219169083151502179055508173ffffffffffffffffffffffffffffffffffffffff168373ffffffffffffffffffffffffffffffffffffffff167f17307eab39ab6107e8899845ad3d59bd9653f200f220920489ca2b5937696c318360405161108c9190611941565b60405180910390a3505050565b600073ffffffffffffffffffffffffffffffffffffffff168473ffffffffffffffffffffffffffffffffffffffff1603611108576040517f08c379a00000000000000000000000000000000000000000000000000000000081526004016110ff906126cb565b60405180910390fd5b6000611112610a54565b9050600061111f8561151b565b9050600061112c8561151b565b905061113c838989858589611334565b600080600088815260200190815260200160002060008a73ffffffffffffffffffffffffffffffffffffffff1673ffffffffffffffffffffffffffffffffffffffff168152602001908152602001600020549050858110156111d3576040517f08c379a00000000000000000000000000000000000000000000000000000000081526004016111ca9061275d565b60405180910390fd5b85810360008089815260200190815260200160002060008b73ffffffffffffffffffffffffffffffffffffffff1673ffffffffffffffffffffffffffffffffffffffff168152602001908152602001600020819055508560008089815260200190815260200160002060008a73ffffffffffffffffffffffffffffffffffffffff1673ffffffffffffffffffffffffffffffffffffffff16815260200190815260200160002060008282546112889190612593565b925050819055508773ffffffffffffffffffffffffffffffffffffffff168973ffffffffffffffffffffffffffffffffffffffff168573ffffffffffffffffffffffffffffffffffffffff167fc3d58168c5ae7397731d063d5bbf3d657854427343f4c083240f7aacaa2d0f628a8a604051611305929190612846565b60405180910390a461131b848a8a86868a61133c565b611329848a8a8a8a8a611595565b505050505050505050565b505050505050565b505050505050565b6113638473ffffffffffffffffffffffffffffffffffffffff1661176c565b15611513578373ffffffffffffffffffffffffffffffffffffffff1663bc197c8187878686866040518663ffffffff1660e01b81526004016113a9959493929190612956565b6020604051808303816000875af19250505080156113e557506040513d601f19601f820116820180604052508101906113e291906129d3565b60015b61148a576113f1612a0d565b806308c379a00361144d5750611405612a2f565b80611410575061144f565b806040517f08c379a00000000000000000000000000000000000000000000000000000000081526004016114449190611a19565b60405180910390fd5b505b6040517f08c379a000000000000000000000000000000000000000000000000000000000815260040161148190612b31565b60405180910390fd5b63bc197c8160e01b7bffffffffffffffffffffffffffffffffffffffffffffffffffffffff1916817bffffffffffffffffffffffffffffffffffffffffffffffffffffffff191614611511576040517f08c379a000000000000000000000000000000000000000000000000000000000815260040161150890612bc3565b60405180910390fd5b505b505050505050565b60606000600167ffffffffffffffff81111561153a57611539611a40565b5b6040519080825280602002602001820160405280156115685781602001602082028036833780820191505090505b50905082816000815181106115805761157f612317565b5b60200260200101818152505080915050919050565b6115b48473ffffffffffffffffffffffffffffffffffffffff1661176c565b15611764578373ffffffffffffffffffffffffffffffffffffffff1663f23a6e6187878686866040518663ffffffff1660e01b81526004016115fa959493929190612be3565b6020604051808303816000875af192505050801561163657506040513d601f19601f8201168201806040525081019061163391906129d3565b60015b6116db57611642612a0d565b806308c379a00361169e5750611656612a2f565b8061166157506116a0565b806040517f08c379a00000000000000000000000000000000000000000000000000000000081526004016116959190611a19565b60405180910390fd5b505b6040517f08c379a00000000000000000000000000000000000000000000000000000000081526004016116d290612b31565b60405180910390fd5b63f23a6e6160e01b7bffffffffffffffffffffffffffffffffffffffffffffffffffffffff1916817bffffffffffffffffffffffffffffffffffffffffffffffffffffffff191614611762576040517f08c379a000000000000000000000000000000000000000000000000000000000815260040161175990612bc3565b60405180910390fd5b505b505050505050565b6000808273ffffffffffffffffffffffffffffffffffffffff163b119050919050565b6000604051905090565b600080fd5b600080fd5b600073ffffffffffffffffffffffffffffffffffffffff82169050919050565b60006117ce826117a3565b9050919050565b6117de816117c3565b81146117e957600080fd5b50565b6000813590506117fb816117d5565b92915050565b6000819050919050565b61181481611801565b811461181f57600080fd5b50565b6000813590506118318161180b565b92915050565b6000806040838503121561184e5761184d611799565b5b600061185c858286016117ec565b925050602061186d85828601611822565b9150509250929050565b61188081611801565b82525050565b600060208201905061189b6000830184611877565b92915050565b60007fffffffff0000000000000000000000000000000000000000000000000000000082169050919050565b6118d6816118a1565b81146118e157600080fd5b50565b6000813590506118f3816118cd565b92915050565b60006020828403121561190f5761190e611799565b5b600061191d848285016118e4565b91505092915050565b60008115159050919050565b61193b81611926565b82525050565b60006020820190506119566000830184611932565b92915050565b60006020828403121561197257611971611799565b5b600061198084828501611822565b91505092915050565b600081519050919050565b600082825260208201905092915050565b60005b838110156119c35780820151818401526020810190506119a8565b60008484015250505050565b6000601f19601f8301169050919050565b60006119eb82611989565b6119f58185611994565b9350611a058185602086016119a5565b611a0e816119cf565b840191505092915050565b60006020820190508181036000830152611a3381846119e0565b905092915050565b600080fd5b7f4e487b7100000000000000000000000000000000000000000000000000000000600052604160045260246000fd5b611a78826119cf565b810181811067ffffffffffffffff82111715611a9757611a96611a40565b5b80604052505050565b6000611aaa61178f565b9050611ab68282611a6f565b919050565b600067ffffffffffffffff821115611ad657611ad5611a40565b5b602082029050602081019050919050565b600080fd5b6000611aff611afa84611abb565b611aa0565b90508083825260208201905060208402830185811115611b2257611b21611ae7565b5b835b81811015611b4b5780611b378882611822565b845260208401935050602081019050611b24565b5050509392505050565b600082601f830112611b6a57611b69611a3b565b5b8135611b7a848260208601611aec565b91505092915050565b600080fd5b600067ffffffffffffffff821115611ba357611ba2611a40565b5b611bac826119cf565b9050602081019050919050565b82818337600083830152505050565b6000611bdb611bd684611b88565b611aa0565b905082815260208101848484011115611bf757611bf6611b83565b5b611c02848285611bb9565b509392505050565b600082601f830112611c1f57611c1e611a3b565b5b8135611c2f848260208601611bc8565b91505092915050565b600080600080600060a08688031215611c5457611c53611799565b5b6000611c62888289016117ec565b9550506020611c73888289016117ec565b945050604086013567ffffffffffffffff811115611c9457611c9361179e565b5b611ca088828901611b55565b935050606086013567ffffffffffffffff811115611cc157611cc061179e565b5b611ccd88828901611b55565b925050608086013567ffffffffffffffff811115611cee57611ced61179e565b5b611cfa88828901611c0a565b9150509295509295909350565b600067ffffffffffffffff821115611d2257611d21611a40565b5b602082029050602081019050919050565b6000611d46611d4184611d07565b611aa0565b90508083825260208201905060208402830185811115611d6957611d68611ae7565b5b835b81811015611d925780611d7e88826117ec565b845260208401935050602081019050611d6b565b5050509392505050565b600082601f830112611db157611db0611a3b565b5b8135611dc1848260208601611d33565b91505092915050565b60008060408385031215611de157611de0611799565b5b600083013567ffffffffffffffff811115611dff57611dfe61179e565b5b611e0b85828601611d9c565b925050602083013567ffffffffffffffff811115611e2c57611e2b61179e565b5b611e3885828601611b55565b9150509250929050565b600081519050919050565b600082825260208201905092915050565b6000819050602082019050919050565b611e7781611801565b82525050565b6000611e898383611e6e565b60208301905092915050565b6000602082019050919050565b6000611ead82611e42565b611eb78185611e4d565b9350611ec283611e5e565b8060005b83811015611ef3578151611eda8882611e7d565b9750611ee583611e95565b925050600181019050611ec6565b5085935050505092915050565b60006020820190508181036000830152611f1a8184611ea2565b905092915050565b600080600060608486031215611f3b57611f3a611799565b5b6000611f49868287016117ec565b9350506020611f5a86828701611822565b925050604084013567ffffffffffffffff811115611f7b57611f7a61179e565b5b611f8786828701611c0a565b9150509250925092565b611f9a81611926565b8114611fa557600080fd5b50565b600081359050611fb781611f91565b92915050565b60008060408385031215611fd457611fd3611799565b5b6000611fe2858286016117ec565b9250506020611ff385828601611fa8565b9150509250929050565b60006020828403121561201357612012611799565b5b6000612021848285016117ec565b91505092915050565b6000806040838503121561204157612040611799565b5b600061204f858286016117ec565b9250506020612060858286016117ec565b9150509250929050565b600080600080600060a0868803121561208657612085611799565b5b6000612094888289016117ec565b95505060206120a5888289016117ec565b94505060406120b688828901611822565b93505060606120c788828901611822565b925050608086013567ffffffffffffffff8111156120e8576120e761179e565b5b6120f488828901611c0a565b9150509295509295909350565b7f455243313135353a2061646472657373207a65726f206973206e6f742061207660008201527f616c6964206f776e657200000000000000000000000000000000000000000000602082015250565b600061215d602a83611994565b915061216882612101565b604082019050919050565b6000602082019050818103600083015261218c81612150565b9050919050565b7f4e487b7100000000000000000000000000000000000000000000000000000000600052602260045260246000fd5b600060028204905060018216806121da57607f821691505b6020821081036121ed576121ec612193565b5b50919050565b7f455243313135353a2063616c6c6572206973206e6f7420746f6b656e206f776e60008201527f6572206f7220617070726f766564000000000000000000000000000000000000602082015250565b600061224f602e83611994565b915061225a826121f3565b604082019050919050565b6000602082019050818103600083015261227e81612242565b9050919050565b7f455243313135353a206163636f756e747320616e6420696473206c656e67746860008201527f206d69736d617463680000000000000000000000000000000000000000000000602082015250565b60006122e1602983611994565b91506122ec82612285565b604082019050919050565b60006020820190508181036000830152612310816122d4565b9050919050565b7f4e487b7100000000000000000000000000000000000000000000000000000000600052603260045260246000fd5b7f4e487b7100000000000000000000000000000000000000000000000000000000600052601160045260246000fd5b600061238082611801565b91507fffffffffffffffffffffffffffffffffffffffffffffffffffffffffffffffff82036123b2576123b1612346565b5b600182019050919050565b6123c6816117c3565b82525050565b60006020820190506123e160008301846123bd565b92915050565b6000815190506123f681611f91565b92915050565b60006020828403121561241257612411611799565b5b6000612420848285016123e7565b91505092915050565b7f56697369743a2068747470733a2f2f737962696c64616f2e636f6d2f2376657260008201527f6966790000000000000000000000000000000000000000000000000000000000602082015250565b6000612485602383611994565b915061249082612429565b604082019050919050565b600060208201905081810360008301526124b481612478565b9050919050565b7f416c6c203130303020746f6b656e732068617665206265656e206d696e746564600082015250565b60006124f1602083611994565b91506124fc826124bb565b602082019050919050565b60006020820190508181036000830152612520816124e4565b9050919050565b7f416c726561647920636c61696d65640000000000000000000000000000000000600082015250565b600061255d600f83611994565b915061256882612527565b602082019050919050565b6000602082019050818103600083015261258c81612550565b9050919050565b600061259e82611801565b91506125a983611801565b92508282019050808211156125c1576125c0612346565b5b92915050565b7f455243313135353a2069647320616e6420616d6f756e7473206c656e6774682060008201527f6d69736d61746368000000000000000000000000000000000000000000000000602082015250565b6000612623602883611994565b915061262e826125c7565b604082019050919050565b6000602082019050818103600083015261265281612616565b9050919050565b7f455243313135353a207472616e7366657220746f20746865207a65726f20616460008201527f6472657373000000000000000000000000000000000000000000000000000000602082015250565b60006126b5602583611994565b91506126c082612659565b604082019050919050565b600060208201905081810360008301526126e4816126a8565b9050919050565b7f455243313135353a20696e73756666696369656e742062616c616e636520666f60008201527f72207472616e7366657200000000000000000000000000000000000000000000602082015250565b6000612747602a83611994565b9150612752826126eb565b604082019050919050565b600060208201905081810360008301526127768161273a565b9050919050565b600060408201905081810360008301526127978185611ea2565b905081810360208301526127ab8184611ea2565b90509392505050565b7f455243313135353a206d696e7420746f20746865207a65726f2061646472657360008201527f7300000000000000000000000000000000000000000000000000000000000000602082015250565b6000612810602183611994565b915061281b826127b4565b604082019050919050565b6000602082019050818103600083015261283f81612803565b9050919050565b600060408201905061285b6000830185611877565b6128686020830184611877565b9392505050565b7f455243313135353a2073657474696e6720617070726f76616c2073746174757360008201527f20666f722073656c660000000000000000000000000000000000000000000000602082015250565b60006128cb602983611994565b91506128d68261286f565b604082019050919050565b600060208201905081810360008301526128fa816128be565b9050919050565b600081519050919050565b600082825260208201905092915050565b600061292882612901565b612932818561290c565b93506129428185602086016119a5565b61294b816119cf565b840191505092915050565b600060a08201905061296b60008301886123bd565b61297860208301876123bd565b818103604083015261298a8186611ea2565b9050818103606083015261299e8185611ea2565b905081810360808301526129b2818461291d565b90509695505050505050565b6000815190506129cd816118cd565b92915050565b6000602082840312156129e9576129e8611799565b5b60006129f7848285016129be565b91505092915050565b60008160e01c9050919050565b600060033d1115612a2c5760046000803e612a29600051612a00565b90505b90565b600060443d10612abc57612a4161178f565b60043d036004823e80513d602482011167ffffffffffffffff82111715612a69575050612abc565b808201805167ffffffffffffffff811115612a875750505050612abc565b80602083010160043d038501811115612aa4575050505050612abc565b612ab382602001850186611a6f565b82955050505050505b90565b7f455243313135353a207472616e7366657220746f206e6f6e2d4552433131353560008201527f526563656976657220696d706c656d656e746572000000000000000000000000602082015250565b6000612b1b603483611994565b9150612b2682612abf565b604082019050919050565b60006020820190508181036000830152612b4a81612b0e565b9050919050565b7f455243313135353a204552433131353552656365697665722072656a6563746560008201527f6420746f6b656e73000000000000000000000000000000000000000000000000602082015250565b6000612bad602883611994565b9150612bb882612b51565b604082019050919050565b60006020820190508181036000830152612bdc81612ba0565b9050919050565b600060a082019050612bf860008301886123bd565b612c0560208301876123bd565b612c126040830186611877565b612c1f6060830185611877565b8181036080830152612c31818461291d565b9050969550505050505056fea26469706673582212207f7dfba04f7b5ca5609fa6f23bc329e43f19f585c40e31af03dd70c9b919ca0f64736f6c63430008110033",
  "linkReferences": {},
  "deployedLinkReferences": {}
}