{
  "_format": "hh-sol-artifact-1",
  "contractName": "ERC1155example",
  "sourceName": "contracts/examples/ERC1155example.sol",
  "abi": [
    {
      "inputs": [],
      "stateMutability": "nonpayable",
      "type": "constructor"
    },
    {
      "anonymous": false,
      "inputs": [
        {
          "indexed": true,
          "internalType": "address",
          "name": "account",
          "type": "address"
        },
        {
          "indexed": true,
          "internalType": "address",
          "name": "operator",
          "type": "address"
        },
        {
          "indexed": false,
          "internalType": "bool",
          "name": "approved",
          "type": "bool"
        }
      ],
      "name": "ApprovalForAll",
      "type": "event"
    },
    {
      "anonymous": false,
      "inputs": [
        {
          "indexed": true,
          "internalType": "address",
          "name": "operator",
          "type": "address"
        },
        {
          "indexed": true,
          "internalType": "address",
          "name": "from",
          "type": "address"
        },
        {
          "indexed": true,
          "internalType": "address",
          "name": "to",
          "type": "address"
        },
        {
          "indexed": false,
          "internalType": "uint256[]",
          "name": "ids",
          "type": "uint256[]"
        },
        {
          "indexed": false,
          "internalType": "uint256[]",
          "name": "values",
          "type": "uint256[]"
        }
      ],
      "name": "TransferBatch",
      "type": "event"
    },
    {
      "anonymous": false,
      "inputs": [
        {
          "indexed": true,
          "internalType": "address",
          "name": "operator",
          "type": "address"
        },
        {
          "indexed": true,
          "internalType": "address",
          "name": "from",
          "type": "address"
        },
        {
          "indexed": true,
          "internalType": "address",
          "name": "to",
          "type": "address"
        },
        {
          "indexed": false,
          "internalType": "uint256",
          "name": "id",
          "type": "uint256"
        },
        {
          "indexed": false,
          "internalType": "uint256",
          "name": "value",
          "type": "uint256"
        }
      ],
      "name": "TransferSingle",
      "type": "event"
    },
    {
      "anonymous": false,
      "inputs": [
        {
          "indexed": false,
          "internalType": "string",
          "name": "value",
          "type": "string"
        },
        {
          "indexed": true,
          "internalType": "uint256",
          "name": "id",
          "type": "uint256"
        }
      ],
      "name": "URI",
      "type": "event"
    },
    {
      "inputs": [
        {
          "internalType": "address",
          "name": "account",
          "type": "address"
        },
        {
          "internalType": "uint256",
          "name": "id",
          "type": "uint256"
        }
      ],
      "name": "balanceOf",
      "outputs": [
        {
          "internalType": "uint256",
          "name": "",
          "type": "uint256"
        }
      ],
      "stateMutability": "view",
      "type": "function"
    },
    {
      "inputs": [
        {
          "internalType": "address[]",
          "name": "accounts",
          "type": "address[]"
        },
        {
          "internalType": "uint256[]",
          "name": "ids",
          "type": "uint256[]"
        }
      ],
      "name": "balanceOfBatch",
      "outputs": [
        {
          "internalType": "uint256[]",
          "name": "",
          "type": "uint256[]"
        }
      ],
      "stateMutability": "view",
      "type": "function"
    },
    {
      "inputs": [
        {
          "internalType": "address",
          "name": "",
          "type": "address"
        }
      ],
      "name": "claimed",
      "outputs": [
        {
          "internalType": "bool",
          "name": "",
          "type": "bool"
        }
      ],
      "stateMutability": "view",
      "type": "function"
    },
    {
      "inputs": [
        {
          "internalType": "address",
          "name": "account",
          "type": "address"
        },
        {
          "internalType": "address",
          "name": "operator",
          "type": "address"
        }
      ],
      "name": "isApprovedForAll",
      "outputs": [
        {
          "internalType": "bool",
          "name": "",
          "type": "bool"
        }
      ],
      "stateMutability": "view",
      "type": "function"
    },
    {
      "inputs": [
        {
          "internalType": "address",
          "name": "account",
          "type": "address"
        },
        {
          "internalType": "uint256",
          "name": "id",
          "type": "uint256"
        },
        {
          "internalType": "uint256",
          "name": "amount",
          "type": "uint256"
        },
        {
          "internalType": "bytes",
          "name": "data",
          "type": "bytes"
        }
      ],
      "name": "mint",
      "outputs": [],
      "stateMutability": "nonpayable",
      "type": "function"
    },
    {
      "inputs": [
        {
          "internalType": "address",
          "name": "from",
          "type": "address"
        },
        {
          "internalType": "address",
          "name": "to",
          "type": "address"
        },
        {
          "internalType": "uint256[]",
          "name": "ids",
          "type": "uint256[]"
        },
        {
          "internalType": "uint256[]",
          "name": "amounts",
          "type": "uint256[]"
        },
        {
          "internalType": "bytes",
          "name": "data",
          "type": "bytes"
        }
      ],
      "name": "safeBatchTransferFrom",
      "outputs": [],
      "stateMutability": "nonpayable",
      "type": "function"
    },
    {
      "inputs": [
        {
          "internalType": "address",
          "name": "from",
          "type": "address"
        },
        {
          "internalType": "address",
          "name": "to",
          "type": "address"
        },
        {
          "internalType": "uint256",
          "name": "id",
          "type": "uint256"
        },
        {
          "internalType": "uint256",
          "name": "amount",
          "type": "uint256"
        },
        {
          "internalType": "bytes",
          "name": "data",
          "type": "bytes"
        }
      ],
      "name": "safeTransferFrom",
      "outputs": [],
      "stateMutability": "nonpayable",
      "type": "function"
    },
    {
      "inputs": [
        {
          "internalType": "address",
          "name": "operator",
          "type": "address"
        },
        {
          "internalType": "bool",
          "name": "approved",
          "type": "bool"
        }
      ],
      "name": "setApprovalForAll",
      "outputs": [],
      "stateMutability": "nonpayable",
      "type": "function"
    },
    {
      "inputs": [
        {
          "internalType": "bytes4",
          "name": "interfaceId",
          "type": "bytes4"
        }
      ],
      "name": "supportsInterface",
      "outputs": [
        {
          "internalType": "bool",
          "name": "",
          "type": "bool"
        }
      ],
      "stateMutability": "view",
      "type": "function"
    },
    {
      "inputs": [],
      "name": "tokenId",
      "outputs": [
        {
          "internalType": "uint256",
          "name": "",
          "type": "uint256"
        }
      ],
      "stateMutability": "view",
      "type": "function"
    },
    {
      "inputs": [
        {
          "internalType": "uint256",
          "name": "",
          "type": "uint256"
        }
      ],
      "name": "uri",
      "outputs": [
        {
          "internalType": "string",
          "name": "",
          "type": "string"
        }
      ],
      "stateMutability": "view",
      "type": "function"
    }
  ],
  "bytecode": "0x60806040523480156200001157600080fd5b506040518060200160405280600081525062000033816200003a60201b60201c565b50620003b0565b80600290816200004b9190620002c9565b5050565b600081519050919050565b7f4e487b7100000000000000000000000000000000000000000000000000000000600052604160045260246000fd5b7f4e487b7100000000000000000000000000000000000000000000000000000000600052602260045260246000fd5b60006002820490506001821680620000d157607f821691505b602082108103620000e757620000e662000089565b5b50919050565b60008190508160005260206000209050919050565b60006020601f8301049050919050565b600082821b905092915050565b600060088302620001517fffffffffffffffffffffffffffffffffffffffffffffffffffffffffffffffff8262000112565b6200015d868362000112565b95508019841693508086168417925050509392505050565b6000819050919050565b6000819050919050565b6000620001aa620001a46200019e8462000175565b6200017f565b62000175565b9050919050565b6000819050919050565b620001c68362000189565b620001de620001d582620001b1565b8484546200011f565b825550505050565b600090565b620001f5620001e6565b62000202818484620001bb565b505050565b5b818110156200022a576200021e600082620001eb565b60018101905062000208565b5050565b601f82111562000279576200024381620000ed565b6200024e8462000102565b810160208510156200025e578190505b620002766200026d8562000102565b83018262000207565b50505b505050565b600082821c905092915050565b60006200029e600019846008026200027e565b1980831691505092915050565b6000620002b983836200028b565b9150826002028217905092915050565b620002d4826200004f565b67ffffffffffffffff811115620002f057620002ef6200005a565b5b620002fc8254620000b8565b620003098282856200022e565b600060209050601f8311600181146200034157600084156200032c578287015190505b620003388582620002ab565b865550620003a8565b601f1984166200035186620000ed565b60005b828110156200037b5784890151825560018201915060208501945060208101905062000354565b868310156200039b578489015162000397601f8916826200028b565b8355505b6001600288020188555050505b505050505050565b612c8680620003c06000396000f3fe608060405234801561001057600080fd5b50600436106100a85760003560e01c80634e1273f4116100715780634e1273f414610177578063731133e9146101a7578063a22cb465146101c3578063c884ef83146101df578063e985e9c51461020f578063f242432a1461023f576100a8565b8062fdd58e146100ad57806301ffc9a7146100dd5780630e89341c1461010d57806317d70f7c1461013d5780632eb2c2d61461015b575b600080fd5b6100c760048036038101906100c29190611836565b61025b565b6040516100d49190611885565b60405180910390f35b6100f760048036038101906100f291906118f8565b610323565b6040516101049190611940565b60405180910390f35b6101276004803603810190610122919061195b565b610405565b6040516101349190611a18565b60405180910390f35b610145610499565b6040516101529190611885565b60405180910390f35b61017560048036038101906101709190611c37565b61049f565b005b610191600480360381019061018c9190611dc9565b610540565b60405161019e9190611eff565b60405180910390f35b6101c160048036038101906101bc9190611f21565b610659565b005b6101dd60048036038101906101d89190611fd0565b61087e565b005b6101f960048036038101906101f49190612010565b610894565b6040516102069190611940565b60405180910390f35b6102296004803603810190610224919061203d565b6108b4565b6040516102369190611940565b60405180910390f35b6102596004803603810190610254919061207d565b610948565b005b60008073ffffffffffffffffffffffffffffffffffffffff168373ffffffffffffffffffffffffffffffffffffffff16036102cb576040517f08c379a00000000000000000000000000000000000000000000000000000000081526004016102c290612186565b60405180910390fd5b60008083815260200190815260200160002060008473ffffffffffffffffffffffffffffffffffffffff1673ffffffffffffffffffffffffffffffffffffffff16815260200190815260200160002054905092915050565b60007fd9b67a26000000000000000000000000000000000000000000000000000000007bffffffffffffffffffffffffffffffffffffffffffffffffffffffff1916827bffffffffffffffffffffffffffffffffffffffffffffffffffffffff191614806103ee57507f0e89341c000000000000000000000000000000000000000000000000000000007bffffffffffffffffffffffffffffffffffffffffffffffffffffffff1916827bffffffffffffffffffffffffffffffffffffffffffffffffffffffff1916145b806103fe57506103fd826109e9565b5b9050919050565b606060028054610414906121d5565b80601f0160208091040260200160405190810160405280929190818152602001828054610440906121d5565b801561048d5780601f106104625761010080835404028352916020019161048d565b820191906000526020600020905b81548152906001019060200180831161047057829003601f168201915b50505050509050919050565b60035481565b6104a7610a53565b73ffffffffffffffffffffffffffffffffffffffff168573ffffffffffffffffffffffffffffffffffffffff1614806104ed57506104ec856104e7610a53565b6108b4565b5b61052c576040517f08c379a000000000000000000000000000000000000000000000000000000000815260040161052390612278565b60405180910390fd5b6105398585858585610a5b565b5050505050565b60608151835114610586576040517f08c379a000000000000000000000000000000000000000000000000000000000815260040161057d9061230a565b60405180910390fd5b6000835167ffffffffffffffff8111156105a3576105a2611a3f565b5b6040519080825280602002602001820160405280156105d15781602001602082028036833780820191505090505b50905060005b845181101561064e5761061e8582815181106105f6576105f561232a565b5b60200260200101518583815181106106115761061061232a565b5b602002602001015161025b565b8282815181106106315761063061232a565b5b6020026020010181815250508061064790612388565b90506105d7565b508091505092915050565b737927bea1ea84614dceaeca1710cea8a7deaa1d2573ffffffffffffffffffffffffffffffffffffffff1663c23697a8336040518263ffffffff1660e01b81526004016106a691906123df565b602060405180830381865afa1580156106c3573d6000803e3d6000fd5b505050506040513d601f19601f820116820180604052508101906106e7919061240f565b610726576040517f08c379a000000000000000000000000000000000000000000000000000000000815260040161071d906124ae565b60405180910390fd5b6103e86003541061076c576040517f08c379a00000000000000000000000000000000000000000000000000000000081526004016107639061251a565b60405180910390fd5b60001515600460003373ffffffffffffffffffffffffffffffffffffffff1673ffffffffffffffffffffffffffffffffffffffff16815260200190815260200160002060009054906101000a900460ff161515146107ff576040517f08c379a00000000000000000000000000000000000000000000000000000000081526004016107f690612586565b60405180910390fd5b6001600460003373ffffffffffffffffffffffffffffffffffffffff1673ffffffffffffffffffffffffffffffffffffffff16815260200190815260200160002060006101000a81548160ff021916908315150217905550600160035461086691906125a6565b60038190555061087884848484610d7c565b50505050565b610890610889610a53565b8383610f2c565b5050565b60046020528060005260406000206000915054906101000a900460ff1681565b6000600160008473ffffffffffffffffffffffffffffffffffffffff1673ffffffffffffffffffffffffffffffffffffffff16815260200190815260200160002060008373ffffffffffffffffffffffffffffffffffffffff1673ffffffffffffffffffffffffffffffffffffffff16815260200190815260200160002060009054906101000a900460ff16905092915050565b610950610a53565b73ffffffffffffffffffffffffffffffffffffffff168573ffffffffffffffffffffffffffffffffffffffff161480610996575061099585610990610a53565b6108b4565b5b6109d5576040517f08c379a00000000000000000000000000000000000000000000000000000000081526004016109cc90612278565b60405180910390fd5b6109e28585858585611098565b5050505050565b60007f01ffc9a7000000000000000000000000000000000000000000000000000000007bffffffffffffffffffffffffffffffffffffffffffffffffffffffff1916827bffffffffffffffffffffffffffffffffffffffffffffffffffffffff1916149050919050565b600033905090565b8151835114610a9f576040517f08c379a0000000000000000000000000000000000000000000000000000000008152600401610a969061264c565b60405180910390fd5b600073ffffffffffffffffffffffffffffffffffffffff168473ffffffffffffffffffffffffffffffffffffffff1603610b0e576040517f08c379a0000000000000000000000000000000000000000000000000000000008152600401610b05906126de565b60405180910390fd5b6000610b18610a53565b9050610b28818787878787611333565b60005b8451811015610cd9576000858281518110610b4957610b4861232a565b5b602002602001015190506000858381518110610b6857610b6761232a565b5b60200260200101519050600080600084815260200190815260200160002060008b73ffffffffffffffffffffffffffffffffffffffff1673ffffffffffffffffffffffffffffffffffffffff16815260200190815260200160002054905081811015610c09576040517f08c379a0000000000000000000000000000000000000000000000000000000008152600401610c0090612770565b60405180910390fd5b81810360008085815260200190815260200160002060008c73ffffffffffffffffffffffffffffffffffffffff1673ffffffffffffffffffffffffffffffffffffffff168152602001908152602001600020819055508160008085815260200190815260200160002060008b73ffffffffffffffffffffffffffffffffffffffff1673ffffffffffffffffffffffffffffffffffffffff1681526020019081526020016000206000828254610cbe91906125a6565b9250508190555050505080610cd290612388565b9050610b2b565b508473ffffffffffffffffffffffffffffffffffffffff168673ffffffffffffffffffffffffffffffffffffffff168273ffffffffffffffffffffffffffffffffffffffff167f4a39dc06d4c0dbc64b70af90fd698a233a518aa5d07e595d983b8c0526c8f7fb8787604051610d50929190612790565b60405180910390a4610d6681878787878761133b565b610d74818787878787611343565b505050505050565b600073ffffffffffffffffffffffffffffffffffffffff168473ffffffffffffffffffffffffffffffffffffffff1603610deb576040517f08c379a0000000000000000000000000000000000000000000000000000000008152600401610de290612839565b60405180910390fd5b6000610df5610a53565b90506000610e028561151a565b90506000610e0f8561151a565b9050610e2083600089858589611333565b8460008088815260200190815260200160002060008973ffffffffffffffffffffffffffffffffffffffff1673ffffffffffffffffffffffffffffffffffffffff1681526020019081526020016000206000828254610e7f91906125a6565b925050819055508673ffffffffffffffffffffffffffffffffffffffff16600073ffffffffffffffffffffffffffffffffffffffff168473ffffffffffffffffffffffffffffffffffffffff167fc3d58168c5ae7397731d063d5bbf3d657854427343f4c083240f7aacaa2d0f628989604051610efd929190612859565b60405180910390a4610f148360008985858961133b565b610f2383600089898989611594565b50505050505050565b8173ffffffffffffffffffffffffffffffffffffffff168373ffffffffffffffffffffffffffffffffffffffff1603610f9a576040517f08c379a0000000000000000000000000000000000000000000000000000000008152600401610f91906128f4565b60405180910390fd5b80600160008573ffffffffffffffffffffffffffffffffffffffff1673ffffffffffffffffffffffffffffffffffffffff16815260200190815260200160002060008473ffffffffffffffffffffffffffffffffffffffff1673ffffffffffffffffffffffffffffffffffffffff16815260200190815260200160002060006101000a81548160ff0219169083151502179055508173ffffffffffffffffffffffffffffffffffffffff168373ffffffffffffffffffffffffffffffffffffffff167f17307eab39ab6107e8899845ad3d59bd9653f200f220920489ca2b5937696c318360405161108b9190611940565b60405180910390a3505050565b600073ffffffffffffffffffffffffffffffffffffffff168473ffffffffffffffffffffffffffffffffffffffff1603611107576040517f08c379a00000000000000000000000000000000000000000000000000000000081526004016110fe906126de565b60405180910390fd5b6000611111610a53565b9050600061111e8561151a565b9050600061112b8561151a565b905061113b838989858589611333565b600080600088815260200190815260200160002060008a73ffffffffffffffffffffffffffffffffffffffff1673ffffffffffffffffffffffffffffffffffffffff168152602001908152602001600020549050858110156111d2576040517f08c379a00000000000000000000000000000000000000000000000000000000081526004016111c990612770565b60405180910390fd5b85810360008089815260200190815260200160002060008b73ffffffffffffffffffffffffffffffffffffffff1673ffffffffffffffffffffffffffffffffffffffff168152602001908152602001600020819055508560008089815260200190815260200160002060008a73ffffffffffffffffffffffffffffffffffffffff1673ffffffffffffffffffffffffffffffffffffffff168152602001908152602001600020600082825461128791906125a6565b925050819055508773ffffffffffffffffffffffffffffffffffffffff168973ffffffffffffffffffffffffffffffffffffffff168573ffffffffffffffffffffffffffffffffffffffff167fc3d58168c5ae7397731d063d5bbf3d657854427343f4c083240f7aacaa2d0f628a8a604051611304929190612859565b60405180910390a461131a848a8a86868a61133b565b611328848a8a8a8a8a611594565b505050505050505050565b505050505050565b505050505050565b6113628473ffffffffffffffffffffffffffffffffffffffff1661176b565b15611512578373ffffffffffffffffffffffffffffffffffffffff1663bc197c8187878686866040518663ffffffff1660e01b81526004016113a8959493929190612969565b6020604051808303816000875af19250505080156113e457506040513d601f19601f820116820180604052508101906113e191906129e6565b60015b611489576113f0612a20565b806308c379a00361144c5750611404612a42565b8061140f575061144e565b806040517f08c379a00000000000000000000000000000000000000000000000000000000081526004016114439190611a18565b60405180910390fd5b505b6040517f08c379a000000000000000000000000000000000000000000000000000000000815260040161148090612b44565b60405180910390fd5b63bc197c8160e01b7bffffffffffffffffffffffffffffffffffffffffffffffffffffffff1916817bffffffffffffffffffffffffffffffffffffffffffffffffffffffff191614611510576040517f08c379a000000000000000000000000000000000000000000000000000000000815260040161150790612bd6565b60405180910390fd5b505b505050505050565b60606000600167ffffffffffffffff81111561153957611538611a3f565b5b6040519080825280602002602001820160405280156115675781602001602082028036833780820191505090505b509050828160008151811061157f5761157e61232a565b5b60200260200101818152505080915050919050565b6115b38473ffffffffffffffffffffffffffffffffffffffff1661176b565b15611763578373ffffffffffffffffffffffffffffffffffffffff1663f23a6e6187878686866040518663ffffffff1660e01b81526004016115f9959493929190612bf6565b6020604051808303816000875af192505050801561163557506040513d601f19601f8201168201806040525081019061163291906129e6565b60015b6116da57611641612a20565b806308c379a00361169d5750611655612a42565b80611660575061169f565b806040517f08c379a00000000000000000000000000000000000000000000000000000000081526004016116949190611a18565b60405180910390fd5b505b6040517f08c379a00000000000000000000000000000000000000000000000000000000081526004016116d190612b44565b60405180910390fd5b63f23a6e6160e01b7bffffffffffffffffffffffffffffffffffffffffffffffffffffffff1916817bffffffffffffffffffffffffffffffffffffffffffffffffffffffff191614611761576040517f08c379a000000000000000000000000000000000000000000000000000000000815260040161175890612bd6565b60405180910390fd5b505b505050505050565b6000808273ffffffffffffffffffffffffffffffffffffffff163b119050919050565b6000604051905090565b600080fd5b600080fd5b600073ffffffffffffffffffffffffffffffffffffffff82169050919050565b60006117cd826117a2565b9050919050565b6117dd816117c2565b81146117e857600080fd5b50565b6000813590506117fa816117d4565b92915050565b6000819050919050565b61181381611800565b811461181e57600080fd5b50565b6000813590506118308161180a565b92915050565b6000806040838503121561184d5761184c611798565b5b600061185b858286016117eb565b925050602061186c85828601611821565b9150509250929050565b61187f81611800565b82525050565b600060208201905061189a6000830184611876565b92915050565b60007fffffffff0000000000000000000000000000000000000000000000000000000082169050919050565b6118d5816118a0565b81146118e057600080fd5b50565b6000813590506118f2816118cc565b92915050565b60006020828403121561190e5761190d611798565b5b600061191c848285016118e3565b91505092915050565b60008115159050919050565b61193a81611925565b82525050565b60006020820190506119556000830184611931565b92915050565b60006020828403121561197157611970611798565b5b600061197f84828501611821565b91505092915050565b600081519050919050565b600082825260208201905092915050565b60005b838110156119c25780820151818401526020810190506119a7565b60008484015250505050565b6000601f19601f8301169050919050565b60006119ea82611988565b6119f48185611993565b9350611a048185602086016119a4565b611a0d816119ce565b840191505092915050565b60006020820190508181036000830152611a3281846119df565b905092915050565b600080fd5b7f4e487b7100000000000000000000000000000000000000000000000000000000600052604160045260246000fd5b611a77826119ce565b810181811067ffffffffffffffff82111715611a9657611a95611a3f565b5b80604052505050565b6000611aa961178e565b9050611ab58282611a6e565b919050565b600067ffffffffffffffff821115611ad557611ad4611a3f565b5b602082029050602081019050919050565b600080fd5b6000611afe611af984611aba565b611a9f565b90508083825260208201905060208402830185811115611b2157611b20611ae6565b5b835b81811015611b4a5780611b368882611821565b845260208401935050602081019050611b23565b5050509392505050565b600082601f830112611b6957611b68611a3a565b5b8135611b79848260208601611aeb565b91505092915050565b600080fd5b600067ffffffffffffffff821115611ba257611ba1611a3f565b5b611bab826119ce565b9050602081019050919050565b82818337600083830152505050565b6000611bda611bd584611b87565b611a9f565b905082815260208101848484011115611bf657611bf5611b82565b5b611c01848285611bb8565b509392505050565b600082601f830112611c1e57611c1d611a3a565b5b8135611c2e848260208601611bc7565b91505092915050565b600080600080600060a08688031215611c5357611c52611798565b5b6000611c61888289016117eb565b9550506020611c72888289016117eb565b945050604086013567ffffffffffffffff811115611c9357611c9261179d565b5b611c9f88828901611b54565b935050606086013567ffffffffffffffff811115611cc057611cbf61179d565b5b611ccc88828901611b54565b925050608086013567ffffffffffffffff811115611ced57611cec61179d565b5b611cf988828901611c09565b9150509295509295909350565b600067ffffffffffffffff821115611d2157611d20611a3f565b5b602082029050602081019050919050565b6000611d45611d4084611d06565b611a9f565b90508083825260208201905060208402830185811115611d6857611d67611ae6565b5b835b81811015611d915780611d7d88826117eb565b845260208401935050602081019050611d6a565b5050509392505050565b600082601f830112611db057611daf611a3a565b5b8135611dc0848260208601611d32565b91505092915050565b60008060408385031215611de057611ddf611798565b5b600083013567ffffffffffffffff811115611dfe57611dfd61179d565b5b611e0a85828601611d9b565b925050602083013567ffffffffffffffff811115611e2b57611e2a61179d565b5b611e3785828601611b54565b9150509250929050565b600081519050919050565b600082825260208201905092915050565b6000819050602082019050919050565b611e7681611800565b82525050565b6000611e888383611e6d565b60208301905092915050565b6000602082019050919050565b6000611eac82611e41565b611eb68185611e4c565b9350611ec183611e5d565b8060005b83811015611ef2578151611ed98882611e7c565b9750611ee483611e94565b925050600181019050611ec5565b5085935050505092915050565b60006020820190508181036000830152611f198184611ea1565b905092915050565b60008060008060808587031215611f3b57611f3a611798565b5b6000611f49878288016117eb565b9450506020611f5a87828801611821565b9350506040611f6b87828801611821565b925050606085013567ffffffffffffffff811115611f8c57611f8b61179d565b5b611f9887828801611c09565b91505092959194509250565b611fad81611925565b8114611fb857600080fd5b50565b600081359050611fca81611fa4565b92915050565b60008060408385031215611fe757611fe6611798565b5b6000611ff5858286016117eb565b925050602061200685828601611fbb565b9150509250929050565b60006020828403121561202657612025611798565b5b6000612034848285016117eb565b91505092915050565b6000806040838503121561205457612053611798565b5b6000612062858286016117eb565b9250506020612073858286016117eb565b9150509250929050565b600080600080600060a0868803121561209957612098611798565b5b60006120a7888289016117eb565b95505060206120b8888289016117eb565b94505060406120c988828901611821565b93505060606120da88828901611821565b925050608086013567ffffffffffffffff8111156120fb576120fa61179d565b5b61210788828901611c09565b9150509295509295909350565b7f455243313135353a2061646472657373207a65726f206973206e6f742061207660008201527f616c6964206f776e657200000000000000000000000000000000000000000000602082015250565b6000612170602a83611993565b915061217b82612114565b604082019050919050565b6000602082019050818103600083015261219f81612163565b9050919050565b7f4e487b7100000000000000000000000000000000000000000000000000000000600052602260045260246000fd5b600060028204905060018216806121ed57607f821691505b602082108103612200576121ff6121a6565b5b50919050565b7f455243313135353a2063616c6c6572206973206e6f7420746f6b656e206f776e60008201527f6572206f7220617070726f766564000000000000000000000000000000000000602082015250565b6000612262602e83611993565b915061226d82612206565b604082019050919050565b6000602082019050818103600083015261229181612255565b9050919050565b7f455243313135353a206163636f756e747320616e6420696473206c656e67746860008201527f206d69736d617463680000000000000000000000000000000000000000000000602082015250565b60006122f4602983611993565b91506122ff82612298565b604082019050919050565b60006020820190508181036000830152612323816122e7565b9050919050565b7f4e487b7100000000000000000000000000000000000000000000000000000000600052603260045260246000fd5b7f4e487b7100000000000000000000000000000000000000000000000000000000600052601160045260246000fd5b600061239382611800565b91507fffffffffffffffffffffffffffffffffffffffffffffffffffffffffffffffff82036123c5576123c4612359565b5b600182019050919050565b6123d9816117c2565b82525050565b60006020820190506123f460008301846123d0565b92915050565b60008151905061240981611fa4565b92915050565b60006020828403121561242557612424611798565b5b6000612433848285016123fa565b91505092915050565b7f56697369743a2068747470733a2f2f737962696c64616f2e636f6d2f2376657260008201527f6966790000000000000000000000000000000000000000000000000000000000602082015250565b6000612498602383611993565b91506124a38261243c565b604082019050919050565b600060208201905081810360008301526124c78161248b565b9050919050565b7f416c6c203130303020746f6b656e732068617665206265656e206d696e746564600082015250565b6000612504602083611993565b915061250f826124ce565b602082019050919050565b60006020820190508181036000830152612533816124f7565b9050919050565b7f416c726561647920636c61696d65640000000000000000000000000000000000600082015250565b6000612570600f83611993565b915061257b8261253a565b602082019050919050565b6000602082019050818103600083015261259f81612563565b9050919050565b60006125b182611800565b91506125bc83611800565b92508282019050808211156125d4576125d3612359565b5b92915050565b7f455243313135353a2069647320616e6420616d6f756e7473206c656e6774682060008201527f6d69736d61746368000000000000000000000000000000000000000000000000602082015250565b6000612636602883611993565b9150612641826125da565b604082019050919050565b6000602082019050818103600083015261266581612629565b9050919050565b7f455243313135353a207472616e7366657220746f20746865207a65726f20616460008201527f6472657373000000000000000000000000000000000000000000000000000000602082015250565b60006126c8602583611993565b91506126d38261266c565b604082019050919050565b600060208201905081810360008301526126f7816126bb565b9050919050565b7f455243313135353a20696e73756666696369656e742062616c616e636520666f60008201527f72207472616e7366657200000000000000000000000000000000000000000000602082015250565b600061275a602a83611993565b9150612765826126fe565b604082019050919050565b600060208201905081810360008301526127898161274d565b9050919050565b600060408201905081810360008301526127aa8185611ea1565b905081810360208301526127be8184611ea1565b90509392505050565b7f455243313135353a206d696e7420746f20746865207a65726f2061646472657360008201527f7300000000000000000000000000000000000000000000000000000000000000602082015250565b6000612823602183611993565b915061282e826127c7565b604082019050919050565b6000602082019050818103600083015261285281612816565b9050919050565b600060408201905061286e6000830185611876565b61287b6020830184611876565b9392505050565b7f455243313135353a2073657474696e6720617070726f76616c2073746174757360008201527f20666f722073656c660000000000000000000000000000000000000000000000602082015250565b60006128de602983611993565b91506128e982612882565b604082019050919050565b6000602082019050818103600083015261290d816128d1565b9050919050565b600081519050919050565b600082825260208201905092915050565b600061293b82612914565b612945818561291f565b93506129558185602086016119a4565b61295e816119ce565b840191505092915050565b600060a08201905061297e60008301886123d0565b61298b60208301876123d0565b818103604083015261299d8186611ea1565b905081810360608301526129b18185611ea1565b905081810360808301526129c58184612930565b90509695505050505050565b6000815190506129e0816118cc565b92915050565b6000602082840312156129fc576129fb611798565b5b6000612a0a848285016129d1565b91505092915050565b60008160e01c9050919050565b600060033d1115612a3f5760046000803e612a3c600051612a13565b90505b90565b600060443d10612acf57612a5461178e565b60043d036004823e80513d602482011167ffffffffffffffff82111715612a7c575050612acf565b808201805167ffffffffffffffff811115612a9a5750505050612acf565b80602083010160043d038501811115612ab7575050505050612acf565b612ac682602001850186611a6e565b82955050505050505b90565b7f455243313135353a207472616e7366657220746f206e6f6e2d4552433131353560008201527f526563656976657220696d706c656d656e746572000000000000000000000000602082015250565b6000612b2e603483611993565b9150612b3982612ad2565b604082019050919050565b60006020820190508181036000830152612b5d81612b21565b9050919050565b7f455243313135353a204552433131353552656365697665722072656a6563746560008201527f6420746f6b656e73000000000000000000000000000000000000000000000000602082015250565b6000612bc0602883611993565b9150612bcb82612b64565b604082019050919050565b60006020820190508181036000830152612bef81612bb3565b9050919050565b600060a082019050612c0b60008301886123d0565b612c1860208301876123d0565b612c256040830186611876565b612c326060830185611876565b8181036080830152612c448184612930565b9050969550505050505056fea2646970667358221220eabe46c93aa5977ee23b9556fa76e7f93061ff449ca83cabda667d734e25187f64736f6c63430008110033",
  "linkReferences": {},
  "deployedLinkReferences": {}
}