{
  "_format": "hh-sol-artifact-1",
  "contractName": "SybilTreasury",
  "sourceName": "contracts/SybilTreasury.sol",
  "abi": [
    {
      "inputs": [
        {
          "internalType": "address",
          "name": "_multisig",
          "type": "address"
        }
      ],
      "stateMutability": "nonpayable",
      "type": "constructor"
    },
    {
      "inputs": [],
      "name": "claim",
      "outputs": [],
      "stateMutability": "nonpayable",
      "type": "function"
    },
    {
      "inputs": [],
      "name": "multisig",
      "outputs": [
        {
          "internalType": "address",
          "name": "",
          "type": "address"
        }
      ],
      "stateMutability": "view",
      "type": "function"
    },
    {
      "inputs": [
        {
          "internalType": "uint256",
          "name": "_amount",
          "type": "uint256"
        }
      ],
      "name": "stake",
      "outputs": [],
      "stateMutability": "nonpayable",
      "type": "function"
    },
    {
      "stateMutability": "payable",
      "type": "receive"
    }
  ],
  "bytecode": "0x608060405234801561001057600080fd5b506040516106d13803806106d18339818101604052810190610032919061011c565b336000806101000a81548173ffffffffffffffffffffffffffffffffffffffff021916908373ffffffffffffffffffffffffffffffffffffffff16021790555080600160006101000a81548173ffffffffffffffffffffffffffffffffffffffff021916908373ffffffffffffffffffffffffffffffffffffffff16021790555050610149565b600080fd5b600073ffffffffffffffffffffffffffffffffffffffff82169050919050565b60006100e9826100be565b9050919050565b6100f9816100de565b811461010457600080fd5b50565b600081519050610116816100f0565b92915050565b600060208284031215610132576101316100b9565b5b600061014084828501610107565b91505092915050565b610579806101586000396000f3fe6080604052600436106100385760003560e01c80634783c35b146100445780634e71d92d1461006f578063a694fc3a146100865761003f565b3661003f57005b600080fd5b34801561005057600080fd5b506100596100af565b60405161006691906103ad565b60405180910390f35b34801561007b57600080fd5b506100846100d5565b005b34801561009257600080fd5b506100ad60048036038101906100a89190610403565b610250565b005b600160009054906101000a900473ffffffffffffffffffffffffffffffffffffffff1681565b600160009054906101000a900473ffffffffffffffffffffffffffffffffffffffff1673ffffffffffffffffffffffffffffffffffffffff163373ffffffffffffffffffffffffffffffffffffffff1614610165576040517f08c379a000000000000000000000000000000000000000000000000000000000815260040161015c9061048d565b60405180910390fd5b60008054906101000a900473ffffffffffffffffffffffffffffffffffffffff1673ffffffffffffffffffffffffffffffffffffffff1663f755d8c36040518163ffffffff1660e01b8152600401600060405180830381600087803b1580156101cd57600080fd5b505af11580156101e1573d6000803e3d6000fd5b50505050600160009054906101000a900473ffffffffffffffffffffffffffffffffffffffff1673ffffffffffffffffffffffffffffffffffffffff166108fc479081150290604051600060405180830381858888f1935050505015801561024d573d6000803e3d6000fd5b50565b60008054906101000a900473ffffffffffffffffffffffffffffffffffffffff1673ffffffffffffffffffffffffffffffffffffffff163373ffffffffffffffffffffffffffffffffffffffff16146102de576040517f08c379a00000000000000000000000000000000000000000000000000000000081526004016102d5906104f9565b60405180910390fd5b60008054906101000a900473ffffffffffffffffffffffffffffffffffffffff1673ffffffffffffffffffffffffffffffffffffffff1663a694fc3a826040518263ffffffff1660e01b81526004016103379190610528565b600060405180830381600087803b15801561035157600080fd5b505af1158015610365573d6000803e3d6000fd5b5050505050565b600073ffffffffffffffffffffffffffffffffffffffff82169050919050565b60006103978261036c565b9050919050565b6103a78161038c565b82525050565b60006020820190506103c2600083018461039e565b92915050565b600080fd5b6000819050919050565b6103e0816103cd565b81146103eb57600080fd5b50565b6000813590506103fd816103d7565b92915050565b600060208284031215610419576104186103c8565b5b6000610427848285016103ee565b91505092915050565b600082825260208201905092915050565b7f4d756c7469736967206f6e6c7900000000000000000000000000000000000000600082015250565b6000610477600d83610430565b915061048282610441565b602082019050919050565b600060208201905081810360008301526104a68161046a565b9050919050565b7f537962696c44414f206f6e6c7900000000000000000000000000000000000000600082015250565b60006104e3600d83610430565b91506104ee826104ad565b602082019050919050565b60006020820190508181036000830152610512816104d6565b9050919050565b610522816103cd565b82525050565b600060208201905061053d6000830184610519565b9291505056fea2646970667358221220f170d56864d1e947d32f402655cd0410b022e5d4c78c440a599d79640bec964464736f6c63430008110033",
  "linkReferences": {},
  "deployedLinkReferences": {}
}