{
  "_format": "hh-sol-artifact-1",
  "contractName": "SybAirdrop",
  "sourceName": "contracts/examples/SybAirdrop.sol",
  "abi": [
    {
      "anonymous": false,
      "inputs": [
        {
          "indexed": true,
          "internalType": "address",
          "name": "previousOwner",
          "type": "address"
        },
        {
          "indexed": true,
          "internalType": "address",
          "name": "newOwner",
          "type": "address"
        }
      ],
      "name": "OwnershipTransferred",
      "type": "event"
    },
    {
      "inputs": [],
      "name": "airdrop",
      "outputs": [],
      "stateMutability": "nonpayable",
      "type": "function"
    },
    {
      "inputs": [
        {
          "internalType": "address",
          "name": "_user",
          "type": "address"
        }
      ],
      "name": "checkEligible",
      "outputs": [
        {
          "internalType": "bool",
          "name": "",
          "type": "bool"
        }
      ],
      "stateMutability": "view",
      "type": "function"
    },
    {
      "inputs": [
        {
          "internalType": "address",
          "name": "",
          "type": "address"
        }
      ],
      "name": "claimed",
      "outputs": [
        {
          "internalType": "bool",
          "name": "",
          "type": "bool"
        }
      ],
      "stateMutability": "view",
      "type": "function"
    },
    {
      "inputs": [],
      "name": "owner",
      "outputs": [
        {
          "internalType": "address",
          "name": "",
          "type": "address"
        }
      ],
      "stateMutability": "view",
      "type": "function"
    },
    {
      "inputs": [],
      "name": "reclaim",
      "outputs": [],
      "stateMutability": "nonpayable",
      "type": "function"
    },
    {
      "inputs": [],
      "name": "renounceOwnership",
      "outputs": [],
      "stateMutability": "nonpayable",
      "type": "function"
    },
    {
      "inputs": [
        {
          "internalType": "address",
          "name": "newOwner",
          "type": "address"
        }
      ],
      "name": "transferOwnership",
      "outputs": [],
      "stateMutability": "nonpayable",
      "type": "function"
    }
  ],
  "bytecode": "0x608060405234801561001057600080fd5b5061002d61002261003260201b60201c565b61003a60201b60201c565b6100fe565b600033905090565b60008060009054906101000a900473ffffffffffffffffffffffffffffffffffffffff169050816000806101000a81548173ffffffffffffffffffffffffffffffffffffffff021916908373ffffffffffffffffffffffffffffffffffffffff1602179055508173ffffffffffffffffffffffffffffffffffffffff168173ffffffffffffffffffffffffffffffffffffffff167f8be0079c531659141344cd1fd0a4f28419497f9722a3daafe3b4186f6b6457e060405160405180910390a35050565b610c898061010d6000396000f3fe608060405234801561001057600080fd5b506004361061007d5760003560e01c80638da5cb5b1161005b5780638da5cb5b146100a0578063c884ef83146100be578063dc5f560e146100ee578063f2fde38b1461011e5761007d565b80633884d63514610082578063715018a61461008c57806380e9071b14610096575b600080fd5b61008a61013a565b005b61009461038f565b005b61009e6103a3565b005b6100a86104d3565b6040516100b59190610835565b60405180910390f35b6100d860048036038101906100d39190610881565b6104fc565b6040516100e591906108c9565b60405180910390f35b61010860048036038101906101039190610881565b61051c565b60405161011591906108c9565b60405180910390f35b61013860048036038101906101339190610881565b610627565b005b737927bea1ea84614dceaeca1710cea8a7deaa1d2573ffffffffffffffffffffffffffffffffffffffff1663c23697a8336040518263ffffffff1660e01b81526004016101879190610835565b602060405180830381865afa1580156101a4573d6000803e3d6000fd5b505050506040513d601f19601f820116820180604052508101906101c89190610910565b610207576040517f08c379a00000000000000000000000000000000000000000000000000000000081526004016101fe906109c0565b60405180910390fd5b60001515600160003373ffffffffffffffffffffffffffffffffffffffff1673ffffffffffffffffffffffffffffffffffffffff16815260200190815260200160002060009054906101000a900460ff1615151461029a576040517f08c379a000000000000000000000000000000000000000000000000000000000815260040161029190610a2c565b60405180910390fd5b60018060003373ffffffffffffffffffffffffffffffffffffffff1673ffffffffffffffffffffffffffffffffffffffff16815260200190815260200160002060006101000a81548160ff021916908315150217905550737927bea1ea84614dceaeca1710cea8a7deaa1d2573ffffffffffffffffffffffffffffffffffffffff1663a9059cbb3368056bc75e2d631000006040518363ffffffff1660e01b8152600401610349929190610a9b565b6020604051808303816000875af1158015610368573d6000803e3d6000fd5b505050506040513d601f19601f8201168201806040525081019061038c9190610910565b50565b6103976106aa565b6103a16000610728565b565b6103ab6106aa565b6000737927bea1ea84614dceaeca1710cea8a7deaa1d2573ffffffffffffffffffffffffffffffffffffffff166370a08231306040518263ffffffff1660e01b81526004016103fa9190610835565b602060405180830381865afa158015610417573d6000803e3d6000fd5b505050506040513d601f19601f8201168201806040525081019061043b9190610af0565b9050737927bea1ea84614dceaeca1710cea8a7deaa1d2573ffffffffffffffffffffffffffffffffffffffff1663a9059cbb33836040518363ffffffff1660e01b815260040161048c929190610b2c565b6020604051808303816000875af11580156104ab573d6000803e3d6000fd5b505050506040513d601f19601f820116820180604052508101906104cf9190610910565b5050565b60008060009054906101000a900473ffffffffffffffffffffffffffffffffffffffff16905090565b60016020528060005260406000206000915054906101000a900460ff1681565b6000806001905060001515737927bea1ea84614dceaeca1710cea8a7deaa1d2573ffffffffffffffffffffffffffffffffffffffff1663c23697a8856040518263ffffffff1660e01b81526004016105749190610835565b602060405180830381865afa158015610591573d6000803e3d6000fd5b505050506040513d601f19601f820116820180604052508101906105b59190610910565b1515036105c157600090505b60011515600160008573ffffffffffffffffffffffffffffffffffffffff1673ffffffffffffffffffffffffffffffffffffffff16815260200190815260200160002060009054906101000a900460ff1615150361061e57600090505b80915050919050565b61062f6106aa565b600073ffffffffffffffffffffffffffffffffffffffff168173ffffffffffffffffffffffffffffffffffffffff160361069e576040517f08c379a000000000000000000000000000000000000000000000000000000000815260040161069590610bc7565b60405180910390fd5b6106a781610728565b50565b6106b26107ec565b73ffffffffffffffffffffffffffffffffffffffff166106d06104d3565b73ffffffffffffffffffffffffffffffffffffffff1614610726576040517f08c379a000000000000000000000000000000000000000000000000000000000815260040161071d90610c33565b60405180910390fd5b565b60008060009054906101000a900473ffffffffffffffffffffffffffffffffffffffff169050816000806101000a81548173ffffffffffffffffffffffffffffffffffffffff021916908373ffffffffffffffffffffffffffffffffffffffff1602179055508173ffffffffffffffffffffffffffffffffffffffff168173ffffffffffffffffffffffffffffffffffffffff167f8be0079c531659141344cd1fd0a4f28419497f9722a3daafe3b4186f6b6457e060405160405180910390a35050565b600033905090565b600073ffffffffffffffffffffffffffffffffffffffff82169050919050565b600061081f826107f4565b9050919050565b61082f81610814565b82525050565b600060208201905061084a6000830184610826565b92915050565b600080fd5b61085e81610814565b811461086957600080fd5b50565b60008135905061087b81610855565b92915050565b60006020828403121561089757610896610850565b5b60006108a58482850161086c565b91505092915050565b60008115159050919050565b6108c3816108ae565b82525050565b60006020820190506108de60008301846108ba565b92915050565b6108ed816108ae565b81146108f857600080fd5b50565b60008151905061090a816108e4565b92915050565b60006020828403121561092657610925610850565b5b6000610934848285016108fb565b91505092915050565b600082825260208201905092915050565b7f56697369743a2068747470733a2f2f737962696c64616f2e636f6d2f2376657260008201527f6966790000000000000000000000000000000000000000000000000000000000602082015250565b60006109aa60238361093d565b91506109b58261094e565b604082019050919050565b600060208201905081810360008301526109d98161099d565b9050919050565b7f416c726561647920636c61696d65640000000000000000000000000000000000600082015250565b6000610a16600f8361093d565b9150610a21826109e0565b602082019050919050565b60006020820190508181036000830152610a4581610a09565b9050919050565b6000819050919050565b6000819050919050565b6000819050919050565b6000610a85610a80610a7b84610a4c565b610a60565b610a56565b9050919050565b610a9581610a6a565b82525050565b6000604082019050610ab06000830185610826565b610abd6020830184610a8c565b9392505050565b610acd81610a56565b8114610ad857600080fd5b50565b600081519050610aea81610ac4565b92915050565b600060208284031215610b0657610b05610850565b5b6000610b1484828501610adb565b91505092915050565b610b2681610a56565b82525050565b6000604082019050610b416000830185610826565b610b4e6020830184610b1d565b9392505050565b7f4f776e61626c653a206e6577206f776e657220697320746865207a65726f206160008201527f6464726573730000000000000000000000000000000000000000000000000000602082015250565b6000610bb160268361093d565b9150610bbc82610b55565b604082019050919050565b60006020820190508181036000830152610be081610ba4565b9050919050565b7f4f776e61626c653a2063616c6c6572206973206e6f7420746865206f776e6572600082015250565b6000610c1d60208361093d565b9150610c2882610be7565b602082019050919050565b60006020820190508181036000830152610c4c81610c10565b905091905056fea264697066735822122099a442cec6c093d89322ee378893be6660b2e0a966c83fe5ef2f0bb601829f5564736f6c63430008110033",
  "linkReferences": {},
  "deployedLinkReferences": {}
}