{
  "_format": "hh-sol-artifact-1",
  "contractName": "SybilMintNFT",
  "sourceName": "contracts/examples/SybilMintNFT.sol",
  "abi": [
    {
      "inputs": [],
      "stateMutability": "nonpayable",
      "type": "constructor"
    },
    {
      "anonymous": false,
      "inputs": [
        {
          "indexed": true,
          "internalType": "address",
          "name": "owner",
          "type": "address"
        },
        {
          "indexed": true,
          "internalType": "address",
          "name": "approved",
          "type": "address"
        },
        {
          "indexed": true,
          "internalType": "uint256",
          "name": "tokenId",
          "type": "uint256"
        }
      ],
      "name": "Approval",
      "type": "event"
    },
    {
      "anonymous": false,
      "inputs": [
        {
          "indexed": true,
          "internalType": "address",
          "name": "owner",
          "type": "address"
        },
        {
          "indexed": true,
          "internalType": "address",
          "name": "operator",
          "type": "address"
        },
        {
          "indexed": false,
          "internalType": "bool",
          "name": "approved",
          "type": "bool"
        }
      ],
      "name": "ApprovalForAll",
      "type": "event"
    },
    {
      "anonymous": false,
      "inputs": [
        {
          "indexed": true,
          "internalType": "address",
          "name": "from",
          "type": "address"
        },
        {
          "indexed": true,
          "internalType": "address",
          "name": "to",
          "type": "address"
        },
        {
          "indexed": true,
          "internalType": "uint256",
          "name": "tokenId",
          "type": "uint256"
        }
      ],
      "name": "Transfer",
      "type": "event"
    },
    {
      "inputs": [
        {
          "internalType": "address",
          "name": "to",
          "type": "address"
        },
        {
          "internalType": "uint256",
          "name": "tokenId",
          "type": "uint256"
        }
      ],
      "name": "approve",
      "outputs": [],
      "stateMutability": "nonpayable",
      "type": "function"
    },
    {
      "inputs": [
        {
          "internalType": "address",
          "name": "owner",
          "type": "address"
        }
      ],
      "name": "balanceOf",
      "outputs": [
        {
          "internalType": "uint256",
          "name": "",
          "type": "uint256"
        }
      ],
      "stateMutability": "view",
      "type": "function"
    },
    {
      "inputs": [
        {
          "internalType": "address",
          "name": "",
          "type": "address"
        }
      ],
      "name": "claimed",
      "outputs": [
        {
          "internalType": "bool",
          "name": "",
          "type": "bool"
        }
      ],
      "stateMutability": "view",
      "type": "function"
    },
    {
      "inputs": [
        {
          "internalType": "uint256",
          "name": "tokenId",
          "type": "uint256"
        }
      ],
      "name": "getApproved",
      "outputs": [
        {
          "internalType": "address",
          "name": "",
          "type": "address"
        }
      ],
      "stateMutability": "view",
      "type": "function"
    },
    {
      "inputs": [
        {
          "internalType": "address",
          "name": "owner",
          "type": "address"
        },
        {
          "internalType": "address",
          "name": "operator",
          "type": "address"
        }
      ],
      "name": "isApprovedForAll",
      "outputs": [
        {
          "internalType": "bool",
          "name": "",
          "type": "bool"
        }
      ],
      "stateMutability": "view",
      "type": "function"
    },
    {
      "inputs": [],
      "name": "mint",
      "outputs": [],
      "stateMutability": "nonpayable",
      "type": "function"
    },
    {
      "inputs": [],
      "name": "name",
      "outputs": [
        {
          "internalType": "string",
          "name": "",
          "type": "string"
        }
      ],
      "stateMutability": "view",
      "type": "function"
    },
    {
      "inputs": [
        {
          "internalType": "uint256",
          "name": "tokenId",
          "type": "uint256"
        }
      ],
      "name": "ownerOf",
      "outputs": [
        {
          "internalType": "address",
          "name": "",
          "type": "address"
        }
      ],
      "stateMutability": "view",
      "type": "function"
    },
    {
      "inputs": [
        {
          "internalType": "address",
          "name": "from",
          "type": "address"
        },
        {
          "internalType": "address",
          "name": "to",
          "type": "address"
        },
        {
          "internalType": "uint256",
          "name": "tokenId",
          "type": "uint256"
        }
      ],
      "name": "safeTransferFrom",
      "outputs": [],
      "stateMutability": "nonpayable",
      "type": "function"
    },
    {
      "inputs": [
        {
          "internalType": "address",
          "name": "from",
          "type": "address"
        },
        {
          "internalType": "address",
          "name": "to",
          "type": "address"
        },
        {
          "internalType": "uint256",
          "name": "tokenId",
          "type": "uint256"
        },
        {
          "internalType": "bytes",
          "name": "data",
          "type": "bytes"
        }
      ],
      "name": "safeTransferFrom",
      "outputs": [],
      "stateMutability": "nonpayable",
      "type": "function"
    },
    {
      "inputs": [
        {
          "internalType": "address",
          "name": "operator",
          "type": "address"
        },
        {
          "internalType": "bool",
          "name": "approved",
          "type": "bool"
        }
      ],
      "name": "setApprovalForAll",
      "outputs": [],
      "stateMutability": "nonpayable",
      "type": "function"
    },
    {
      "inputs": [
        {
          "internalType": "bytes4",
          "name": "interfaceId",
          "type": "bytes4"
        }
      ],
      "name": "supportsInterface",
      "outputs": [
        {
          "internalType": "bool",
          "name": "",
          "type": "bool"
        }
      ],
      "stateMutability": "view",
      "type": "function"
    },
    {
      "inputs": [],
      "name": "symbol",
      "outputs": [
        {
          "internalType": "string",
          "name": "",
          "type": "string"
        }
      ],
      "stateMutability": "view",
      "type": "function"
    },
    {
      "inputs": [],
      "name": "tokenId",
      "outputs": [
        {
          "internalType": "uint256",
          "name": "",
          "type": "uint256"
        }
      ],
      "stateMutability": "view",
      "type": "function"
    },
    {
      "inputs": [
        {
          "internalType": "uint256",
          "name": "",
          "type": "uint256"
        }
      ],
      "name": "tokenURI",
      "outputs": [
        {
          "internalType": "string",
          "name": "",
          "type": "string"
        }
      ],
      "stateMutability": "pure",
      "type": "function"
    },
    {
      "inputs": [
        {
          "internalType": "address",
          "name": "from",
          "type": "address"
        },
        {
          "internalType": "address",
          "name": "to",
          "type": "address"
        },
        {
          "internalType": "uint256",
          "name": "tokenId",
          "type": "uint256"
        }
      ],
      "name": "transferFrom",
      "outputs": [],
      "stateMutability": "nonpayable",
      "type": "function"
    }
  ],
  "bytecode": "0x60806040523480156200001157600080fd5b506040518060400160405280600f81526020017f412053414645204d494e54204e465400000000000000000000000000000000008152506040518060400160405280600381526020017f4e4654000000000000000000000000000000000000000000000000000000000081525081600090816200008f919062000324565b508060019081620000a1919062000324565b5050506200040b565b600081519050919050565b7f4e487b7100000000000000000000000000000000000000000000000000000000600052604160045260246000fd5b7f4e487b7100000000000000000000000000000000000000000000000000000000600052602260045260246000fd5b600060028204905060018216806200012c57607f821691505b602082108103620001425762000141620000e4565b5b50919050565b60008190508160005260206000209050919050565b60006020601f8301049050919050565b600082821b905092915050565b600060088302620001ac7fffffffffffffffffffffffffffffffffffffffffffffffffffffffffffffffff826200016d565b620001b886836200016d565b95508019841693508086168417925050509392505050565b6000819050919050565b6000819050919050565b600062000205620001ff620001f984620001d0565b620001da565b620001d0565b9050919050565b6000819050919050565b6200022183620001e4565b6200023962000230826200020c565b8484546200017a565b825550505050565b600090565b6200025062000241565b6200025d81848462000216565b505050565b5b8181101562000285576200027960008262000246565b60018101905062000263565b5050565b601f821115620002d4576200029e8162000148565b620002a9846200015d565b81016020851015620002b9578190505b620002d1620002c8856200015d565b83018262000262565b50505b505050565b600082821c905092915050565b6000620002f960001984600802620002d9565b1980831691505092915050565b6000620003148383620002e6565b9150826002028217905092915050565b6200032f82620000aa565b67ffffffffffffffff8111156200034b576200034a620000b5565b5b62000357825462000113565b6200036482828562000289565b600060209050601f8311600181146200039c576000841562000387578287015190505b62000393858262000306565b86555062000403565b601f198416620003ac8662000148565b60005b82811015620003d657848901518255600182019150602085019450602081019050620003af565b86831015620003f65784890151620003f2601f891682620002e6565b8355505b6001600288020188555050505b505050505050565b612c5f806200041b6000396000f3fe608060405234801561001057600080fd5b50600436106101005760003560e01c80636352211e11610097578063b88d4fde11610066578063b88d4fde14610299578063c87b56dd146102b5578063c884ef83146102e5578063e985e9c51461031557610100565b80636352211e146101ff57806370a082311461022f57806395d89b411461025f578063a22cb4651461027d57610100565b80631249c58b116100d35780631249c58b1461019f57806317d70f7c146101a957806323b872dd146101c757806342842e0e146101e357610100565b806301ffc9a71461010557806306fdde0314610135578063081812fc14610153578063095ea7b314610183575b600080fd5b61011f600480360381019061011a9190611adc565b610345565b60405161012c9190611b24565b60405180910390f35b61013d610427565b60405161014a9190611bcf565b60405180910390f35b61016d60048036038101906101689190611c27565b6104b9565b60405161017a9190611c95565b60405180910390f35b61019d60048036038101906101989190611cdc565b6104ff565b005b6101a7610616565b005b6101b1610882565b6040516101be9190611d2b565b60405180910390f35b6101e160048036038101906101dc9190611d46565b610888565b005b6101fd60048036038101906101f89190611d46565b6108e8565b005b61021960048036038101906102149190611c27565b610908565b6040516102269190611c95565b60405180910390f35b61024960048036038101906102449190611d99565b61098e565b6040516102569190611d2b565b60405180910390f35b610267610a45565b6040516102749190611bcf565b60405180910390f35b61029760048036038101906102929190611df2565b610ad7565b005b6102b360048036038101906102ae9190611f67565b610aed565b005b6102cf60048036038101906102ca9190611c27565b610b4f565b6040516102dc9190611bcf565b60405180910390f35b6102ff60048036038101906102fa9190611d99565b610ba3565b60405161030c9190611b24565b60405180910390f35b61032f600480360381019061032a9190611fea565b610bc3565b60405161033c9190611b24565b60405180910390f35b60007f80ac58cd000000000000000000000000000000000000000000000000000000007bffffffffffffffffffffffffffffffffffffffffffffffffffffffff1916827bffffffffffffffffffffffffffffffffffffffffffffffffffffffff1916148061041057507f5b5e139f000000000000000000000000000000000000000000000000000000007bffffffffffffffffffffffffffffffffffffffffffffffffffffffff1916827bffffffffffffffffffffffffffffffffffffffffffffffffffffffff1916145b80610420575061041f82610c57565b5b9050919050565b60606000805461043690612059565b80601f016020809104026020016040519081016040528092919081815260200182805461046290612059565b80156104af5780601f10610484576101008083540402835291602001916104af565b820191906000526020600020905b81548152906001019060200180831161049257829003601f168201915b5050505050905090565b60006104c482610cc1565b6004600083815260200190815260200160002060009054906101000a900473ffffffffffffffffffffffffffffffffffffffff169050919050565b600061050a82610908565b90508073ffffffffffffffffffffffffffffffffffffffff168373ffffffffffffffffffffffffffffffffffffffff160361057a576040517f08c379a0000000000000000000000000000000000000000000000000000000008152600401610571906120fc565b60405180910390fd5b8073ffffffffffffffffffffffffffffffffffffffff16610599610d0c565b73ffffffffffffffffffffffffffffffffffffffff1614806105c857506105c7816105c2610d0c565b610bc3565b5b610607576040517f08c379a00000000000000000000000000000000000000000000000000000000081526004016105fe9061218e565b60405180910390fd5b6106118383610d14565b505050565b737927bea1ea84614dceaeca1710cea8a7deaa1d2573ffffffffffffffffffffffffffffffffffffffff1663c23697a8336040518263ffffffff1660e01b81526004016106639190611c95565b602060405180830381865afa158015610680573d6000803e3d6000fd5b505050506040513d601f19601f820116820180604052508101906106a491906121c3565b6106e3576040517f08c379a00000000000000000000000000000000000000000000000000000000081526004016106da90612262565b60405180910390fd5b6103e860065410610729576040517f08c379a0000000000000000000000000000000000000000000000000000000008152600401610720906122ce565b60405180910390fd5b60006107343361098e565b14610774576040517f08c379a000000000000000000000000000000000000000000000000000000000815260040161076b9061233a565b60405180910390fd5b60001515600760003373ffffffffffffffffffffffffffffffffffffffff1673ffffffffffffffffffffffffffffffffffffffff16815260200190815260200160002060009054906101000a900460ff16151514610807576040517f08c379a00000000000000000000000000000000000000000000000000000000081526004016107fe906123a6565b60405180910390fd5b6001600760003373ffffffffffffffffffffffffffffffffffffffff1673ffffffffffffffffffffffffffffffffffffffff16815260200190815260200160002060006101000a81548160ff02191690831515021790555061086b33600654610dcd565b600160065461087a91906123f5565b600681905550565b60065481565b610899610893610d0c565b82610deb565b6108d8576040517f08c379a00000000000000000000000000000000000000000000000000000000081526004016108cf9061249b565b60405180910390fd5b6108e3838383610e80565b505050565b61090383838360405180602001604052806000815250610aed565b505050565b60008061091483611179565b9050600073ffffffffffffffffffffffffffffffffffffffff168173ffffffffffffffffffffffffffffffffffffffff1603610985576040517f08c379a000000000000000000000000000000000000000000000000000000000815260040161097c90612507565b60405180910390fd5b80915050919050565b60008073ffffffffffffffffffffffffffffffffffffffff168273ffffffffffffffffffffffffffffffffffffffff16036109fe576040517f08c379a00000000000000000000000000000000000000000000000000000000081526004016109f590612599565b60405180910390fd5b600360008373ffffffffffffffffffffffffffffffffffffffff1673ffffffffffffffffffffffffffffffffffffffff168152602001908152602001600020549050919050565b606060018054610a5490612059565b80601f0160208091040260200160405190810160405280929190818152602001828054610a8090612059565b8015610acd5780601f10610aa257610100808354040283529160200191610acd565b820191906000526020600020905b815481529060010190602001808311610ab057829003601f168201915b5050505050905090565b610ae9610ae2610d0c565b83836111b6565b5050565b610afe610af8610d0c565b83610deb565b610b3d576040517f08c379a0000000000000000000000000000000000000000000000000000000008152600401610b349061249b565b60405180910390fd5b610b4984848484611322565b50505050565b60606000610b79604051602001610b6590612682565b60405160208183030381529060405261137e565b905080604051602001610b8c9190612714565b604051602081830303815290604052915050919050565b60076020528060005260406000206000915054906101000a900460ff1681565b6000600560008473ffffffffffffffffffffffffffffffffffffffff1673ffffffffffffffffffffffffffffffffffffffff16815260200190815260200160002060008373ffffffffffffffffffffffffffffffffffffffff1673ffffffffffffffffffffffffffffffffffffffff16815260200190815260200160002060009054906101000a900460ff16905092915050565b60007f01ffc9a7000000000000000000000000000000000000000000000000000000007bffffffffffffffffffffffffffffffffffffffffffffffffffffffff1916827bffffffffffffffffffffffffffffffffffffffffffffffffffffffff1916149050919050565b610cca816114e1565b610d09576040517f08c379a0000000000000000000000000000000000000000000000000000000008152600401610d0090612507565b60405180910390fd5b50565b600033905090565b816004600083815260200190815260200160002060006101000a81548173ffffffffffffffffffffffffffffffffffffffff021916908373ffffffffffffffffffffffffffffffffffffffff160217905550808273ffffffffffffffffffffffffffffffffffffffff16610d8783610908565b73ffffffffffffffffffffffffffffffffffffffff167f8c5be1e5ebec7d5bd14f71427d1e84f3dd0314c0f7b2291e5b200ac8c7c3b92560405160405180910390a45050565b610de7828260405180602001604052806000815250611522565b5050565b600080610df783610908565b90508073ffffffffffffffffffffffffffffffffffffffff168473ffffffffffffffffffffffffffffffffffffffff161480610e395750610e388185610bc3565b5b80610e7757508373ffffffffffffffffffffffffffffffffffffffff16610e5f846104b9565b73ffffffffffffffffffffffffffffffffffffffff16145b91505092915050565b8273ffffffffffffffffffffffffffffffffffffffff16610ea082610908565b73ffffffffffffffffffffffffffffffffffffffff1614610ef6576040517f08c379a0000000000000000000000000000000000000000000000000000000008152600401610eed906127a8565b60405180910390fd5b600073ffffffffffffffffffffffffffffffffffffffff168273ffffffffffffffffffffffffffffffffffffffff1603610f65576040517f08c379a0000000000000000000000000000000000000000000000000000000008152600401610f5c9061283a565b60405180910390fd5b610f72838383600161157d565b8273ffffffffffffffffffffffffffffffffffffffff16610f9282610908565b73ffffffffffffffffffffffffffffffffffffffff1614610fe8576040517f08c379a0000000000000000000000000000000000000000000000000000000008152600401610fdf906127a8565b60405180910390fd5b6004600082815260200190815260200160002060006101000a81549073ffffffffffffffffffffffffffffffffffffffff02191690556001600360008573ffffffffffffffffffffffffffffffffffffffff1673ffffffffffffffffffffffffffffffffffffffff168152602001908152602001600020600082825403925050819055506001600360008473ffffffffffffffffffffffffffffffffffffffff1673ffffffffffffffffffffffffffffffffffffffff16815260200190815260200160002060008282540192505081905550816002600083815260200190815260200160002060006101000a81548173ffffffffffffffffffffffffffffffffffffffff021916908373ffffffffffffffffffffffffffffffffffffffff160217905550808273ffffffffffffffffffffffffffffffffffffffff168473ffffffffffffffffffffffffffffffffffffffff167fddf252ad1be2c89b69c2b068fc378daa952ba7f163c4a11628f55a4df523b3ef60405160405180910390a461117483838360016116a3565b505050565b60006002600083815260200190815260200160002060009054906101000a900473ffffffffffffffffffffffffffffffffffffffff169050919050565b8173ffffffffffffffffffffffffffffffffffffffff168373ffffffffffffffffffffffffffffffffffffffff1603611224576040517f08c379a000000000000000000000000000000000000000000000000000000000815260040161121b906128a6565b60405180910390fd5b80600560008573ffffffffffffffffffffffffffffffffffffffff1673ffffffffffffffffffffffffffffffffffffffff16815260200190815260200160002060008473ffffffffffffffffffffffffffffffffffffffff1673ffffffffffffffffffffffffffffffffffffffff16815260200190815260200160002060006101000a81548160ff0219169083151502179055508173ffffffffffffffffffffffffffffffffffffffff168373ffffffffffffffffffffffffffffffffffffffff167f17307eab39ab6107e8899845ad3d59bd9653f200f220920489ca2b5937696c31836040516113159190611b24565b60405180910390a3505050565b61132d848484610e80565b611339848484846116a9565b611378576040517f08c379a000000000000000000000000000000000000000000000000000000000815260040161136f90612938565b60405180910390fd5b50505050565b606060008251036113a0576040518060200160405280600081525090506114dc565b6000604051806060016040528060408152602001612bea60409139905060006003600285516113cf91906123f5565b6113d99190612987565b60046113e591906129b8565b67ffffffffffffffff8111156113fe576113fd611e3c565b5b6040519080825280601f01601f1916602001820160405280156114305781602001600182028036833780820191505090505b509050600182016020820185865187015b8082101561149c576003820191508151603f8160121c168501518453600184019350603f81600c1c168501518453600184019350603f8160061c168501518453600184019350603f8116850151845360018401935050611441565b50506003865106600181146114b857600281146114cb576114d3565b603d6001830353603d60028303536114d3565b603d60018303535b50505080925050505b919050565b60008073ffffffffffffffffffffffffffffffffffffffff1661150383611179565b73ffffffffffffffffffffffffffffffffffffffff1614159050919050565b61152c8383611830565b61153960008484846116a9565b611578576040517f08c379a000000000000000000000000000000000000000000000000000000000815260040161156f90612938565b60405180910390fd5b505050565b600181111561169d57600073ffffffffffffffffffffffffffffffffffffffff168473ffffffffffffffffffffffffffffffffffffffff16146116115780600360008673ffffffffffffffffffffffffffffffffffffffff1673ffffffffffffffffffffffffffffffffffffffff168152602001908152602001600020600082825461160991906129fa565b925050819055505b600073ffffffffffffffffffffffffffffffffffffffff168373ffffffffffffffffffffffffffffffffffffffff161461169c5780600360008573ffffffffffffffffffffffffffffffffffffffff1673ffffffffffffffffffffffffffffffffffffffff168152602001908152602001600020600082825461169491906123f5565b925050819055505b5b50505050565b50505050565b60006116ca8473ffffffffffffffffffffffffffffffffffffffff16611a4d565b15611823578373ffffffffffffffffffffffffffffffffffffffff1663150b7a026116f3610d0c565b8786866040518563ffffffff1660e01b81526004016117159493929190612a83565b6020604051808303816000875af192505050801561175157506040513d601f19601f8201168201806040525081019061174e9190612ae4565b60015b6117d3573d8060008114611781576040519150601f19603f3d011682016040523d82523d6000602084013e611786565b606091505b5060008151036117cb576040517f08c379a00000000000000000000000000000000000000000000000000000000081526004016117c290612938565b60405180910390fd5b805181602001fd5b63150b7a0260e01b7bffffffffffffffffffffffffffffffffffffffffffffffffffffffff1916817bffffffffffffffffffffffffffffffffffffffffffffffffffffffff191614915050611828565b600190505b949350505050565b600073ffffffffffffffffffffffffffffffffffffffff168273ffffffffffffffffffffffffffffffffffffffff160361189f576040517f08c379a000000000000000000000000000000000000000000000000000000000815260040161189690612b5d565b60405180910390fd5b6118a8816114e1565b156118e8576040517f08c379a00000000000000000000000000000000000000000000000000000000081526004016118df90612bc9565b60405180910390fd5b6118f660008383600161157d565b6118ff816114e1565b1561193f576040517f08c379a000000000000000000000000000000000000000000000000000000000815260040161193690612bc9565b60405180910390fd5b6001600360008473ffffffffffffffffffffffffffffffffffffffff1673ffffffffffffffffffffffffffffffffffffffff16815260200190815260200160002060008282540192505081905550816002600083815260200190815260200160002060006101000a81548173ffffffffffffffffffffffffffffffffffffffff021916908373ffffffffffffffffffffffffffffffffffffffff160217905550808273ffffffffffffffffffffffffffffffffffffffff16600073ffffffffffffffffffffffffffffffffffffffff167fddf252ad1be2c89b69c2b068fc378daa952ba7f163c4a11628f55a4df523b3ef60405160405180910390a4611a496000838360016116a3565b5050565b6000808273ffffffffffffffffffffffffffffffffffffffff163b119050919050565b6000604051905090565b600080fd5b600080fd5b60007fffffffff0000000000000000000000000000000000000000000000000000000082169050919050565b611ab981611a84565b8114611ac457600080fd5b50565b600081359050611ad681611ab0565b92915050565b600060208284031215611af257611af1611a7a565b5b6000611b0084828501611ac7565b91505092915050565b60008115159050919050565b611b1e81611b09565b82525050565b6000602082019050611b396000830184611b15565b92915050565b600081519050919050565b600082825260208201905092915050565b60005b83811015611b79578082015181840152602081019050611b5e565b60008484015250505050565b6000601f19601f8301169050919050565b6000611ba182611b3f565b611bab8185611b4a565b9350611bbb818560208601611b5b565b611bc481611b85565b840191505092915050565b60006020820190508181036000830152611be98184611b96565b905092915050565b6000819050919050565b611c0481611bf1565b8114611c0f57600080fd5b50565b600081359050611c2181611bfb565b92915050565b600060208284031215611c3d57611c3c611a7a565b5b6000611c4b84828501611c12565b91505092915050565b600073ffffffffffffffffffffffffffffffffffffffff82169050919050565b6000611c7f82611c54565b9050919050565b611c8f81611c74565b82525050565b6000602082019050611caa6000830184611c86565b92915050565b611cb981611c74565b8114611cc457600080fd5b50565b600081359050611cd681611cb0565b92915050565b60008060408385031215611cf357611cf2611a7a565b5b6000611d0185828601611cc7565b9250506020611d1285828601611c12565b9150509250929050565b611d2581611bf1565b82525050565b6000602082019050611d406000830184611d1c565b92915050565b600080600060608486031215611d5f57611d5e611a7a565b5b6000611d6d86828701611cc7565b9350506020611d7e86828701611cc7565b9250506040611d8f86828701611c12565b9150509250925092565b600060208284031215611daf57611dae611a7a565b5b6000611dbd84828501611cc7565b91505092915050565b611dcf81611b09565b8114611dda57600080fd5b50565b600081359050611dec81611dc6565b92915050565b60008060408385031215611e0957611e08611a7a565b5b6000611e1785828601611cc7565b9250506020611e2885828601611ddd565b9150509250929050565b600080fd5b600080fd5b7f4e487b7100000000000000000000000000000000000000000000000000000000600052604160045260246000fd5b611e7482611b85565b810181811067ffffffffffffffff82111715611e9357611e92611e3c565b5b80604052505050565b6000611ea6611a70565b9050611eb28282611e6b565b919050565b600067ffffffffffffffff821115611ed257611ed1611e3c565b5b611edb82611b85565b9050602081019050919050565b82818337600083830152505050565b6000611f0a611f0584611eb7565b611e9c565b905082815260208101848484011115611f2657611f25611e37565b5b611f31848285611ee8565b509392505050565b600082601f830112611f4e57611f4d611e32565b5b8135611f5e848260208601611ef7565b91505092915050565b60008060008060808587031215611f8157611f80611a7a565b5b6000611f8f87828801611cc7565b9450506020611fa087828801611cc7565b9350506040611fb187828801611c12565b925050606085013567ffffffffffffffff811115611fd257611fd1611a7f565b5b611fde87828801611f39565b91505092959194509250565b6000806040838503121561200157612000611a7a565b5b600061200f85828601611cc7565b925050602061202085828601611cc7565b9150509250929050565b7f4e487b7100000000000000000000000000000000000000000000000000000000600052602260045260246000fd5b6000600282049050600182168061207157607f821691505b6020821081036120845761208361202a565b5b50919050565b7f4552433732313a20617070726f76616c20746f2063757272656e74206f776e6560008201527f7200000000000000000000000000000000000000000000000000000000000000602082015250565b60006120e6602183611b4a565b91506120f18261208a565b604082019050919050565b60006020820190508181036000830152612115816120d9565b9050919050565b7f4552433732313a20617070726f76652063616c6c6572206973206e6f7420746f60008201527f6b656e206f776e6572206f7220617070726f76656420666f7220616c6c000000602082015250565b6000612178603d83611b4a565b91506121838261211c565b604082019050919050565b600060208201905081810360008301526121a78161216b565b9050919050565b6000815190506121bd81611dc6565b92915050565b6000602082840312156121d9576121d8611a7a565b5b60006121e7848285016121ae565b91505092915050565b7f56697369743a2068747470733a2f2f737962696c64616f2e636f6d2f2376657260008201527f6966790000000000000000000000000000000000000000000000000000000000602082015250565b600061224c602383611b4a565b9150612257826121f0565b604082019050919050565b6000602082019050818103600083015261227b8161223f565b9050919050565b7f416c6c203130303020746f6b656e732068617665206265656e206d696e746564600082015250565b60006122b8602083611b4a565b91506122c382612282565b602082019050919050565b600060208201905081810360008301526122e7816122ab565b9050919050565b7f596f7520616c7265616479206861766520616e204e4654000000000000000000600082015250565b6000612324601783611b4a565b915061232f826122ee565b602082019050919050565b6000602082019050818103600083015261235381612317565b9050919050565b7f416c726561647920636c61696d65640000000000000000000000000000000000600082015250565b6000612390600f83611b4a565b915061239b8261235a565b602082019050919050565b600060208201905081810360008301526123bf81612383565b9050919050565b7f4e487b7100000000000000000000000000000000000000000000000000000000600052601160045260246000fd5b600061240082611bf1565b915061240b83611bf1565b9250828201905080821115612423576124226123c6565b5b92915050565b7f4552433732313a2063616c6c6572206973206e6f7420746f6b656e206f776e6560008201527f72206f7220617070726f76656400000000000000000000000000000000000000602082015250565b6000612485602d83611b4a565b915061249082612429565b604082019050919050565b600060208201905081810360008301526124b481612478565b9050919050565b7f4552433732313a20696e76616c696420746f6b656e2049440000000000000000600082015250565b60006124f1601883611b4a565b91506124fc826124bb565b602082019050919050565b60006020820190508181036000830152612520816124e4565b9050919050565b7f4552433732313a2061646472657373207a65726f206973206e6f74206120766160008201527f6c6964206f776e65720000000000000000000000000000000000000000000000602082015250565b6000612583602983611b4a565b915061258e82612527565b604082019050919050565b600060208201905081810360008301526125b281612576565b9050919050565b600081905092915050565b7f7b226e616d65223a2022537962696c44414f222c20226465736372697074696f60008201527f6e223a2022416e206578616d706c65204e46542066726f6d20537962696c444160208201527f4f222c2022696d616765223a202268747470733a2f2f737962696c64616f2e6360408201527f6f6d2f696d672f69636f6e2e706e67227d000000000000000000000000000000606082015250565b600061266c6071836125b9565b9150612677826125c4565b607182019050919050565b600061268d8261265f565b9150819050919050565b7f646174613a6170706c69636174696f6e2f6a736f6e3b6261736536342c000000600082015250565b60006126cd601d836125b9565b91506126d882612697565b601d82019050919050565b60006126ee82611b3f565b6126f881856125b9565b9350612708818560208601611b5b565b80840191505092915050565b600061271f826126c0565b915061272b82846126e3565b915081905092915050565b7f4552433732313a207472616e736665722066726f6d20696e636f72726563742060008201527f6f776e6572000000000000000000000000000000000000000000000000000000602082015250565b6000612792602583611b4a565b915061279d82612736565b604082019050919050565b600060208201905081810360008301526127c181612785565b9050919050565b7f4552433732313a207472616e7366657220746f20746865207a65726f2061646460008201527f7265737300000000000000000000000000000000000000000000000000000000602082015250565b6000612824602483611b4a565b915061282f826127c8565b604082019050919050565b6000602082019050818103600083015261285381612817565b9050919050565b7f4552433732313a20617070726f766520746f2063616c6c657200000000000000600082015250565b6000612890601983611b4a565b915061289b8261285a565b602082019050919050565b600060208201905081810360008301526128bf81612883565b9050919050565b7f4552433732313a207472616e7366657220746f206e6f6e20455243373231526560008201527f63656976657220696d706c656d656e7465720000000000000000000000000000602082015250565b6000612922603283611b4a565b915061292d826128c6565b604082019050919050565b6000602082019050818103600083015261295181612915565b9050919050565b7f4e487b7100000000000000000000000000000000000000000000000000000000600052601260045260246000fd5b600061299282611bf1565b915061299d83611bf1565b9250826129ad576129ac612958565b5b828204905092915050565b60006129c382611bf1565b91506129ce83611bf1565b92508282026129dc81611bf1565b915082820484148315176129f3576129f26123c6565b5b5092915050565b6000612a0582611bf1565b9150612a1083611bf1565b9250828203905081811115612a2857612a276123c6565b5b92915050565b600081519050919050565b600082825260208201905092915050565b6000612a5582612a2e565b612a5f8185612a39565b9350612a6f818560208601611b5b565b612a7881611b85565b840191505092915050565b6000608082019050612a986000830187611c86565b612aa56020830186611c86565b612ab26040830185611d1c565b8181036060830152612ac48184612a4a565b905095945050505050565b600081519050612ade81611ab0565b92915050565b600060208284031215612afa57612af9611a7a565b5b6000612b0884828501612acf565b91505092915050565b7f4552433732313a206d696e7420746f20746865207a65726f2061646472657373600082015250565b6000612b47602083611b4a565b9150612b5282612b11565b602082019050919050565b60006020820190508181036000830152612b7681612b3a565b9050919050565b7f4552433732313a20746f6b656e20616c7265616479206d696e74656400000000600082015250565b6000612bb3601c83611b4a565b9150612bbe82612b7d565b602082019050919050565b60006020820190508181036000830152612be281612ba6565b905091905056fe4142434445464748494a4b4c4d4e4f505152535455565758595a6162636465666768696a6b6c6d6e6f707172737475767778797a303132333435363738392b2fa2646970667358221220a97d64890387fdf234ee53e21409c3253beda3d1f7b4ea2f48b7c60bab08d75664736f6c63430008110033",
  "linkReferences": {},
  "deployedLinkReferences": {}
}